:100000007FC20000AEC20000ACC20000AAC2000065
:10001000A8C20000A6C20000A4C20000A2C2000044
:10002000A0C200000C94294C0C94294C0C94294C2F
:100030000C941F4C0C94E64994C2000092C200003C
:1000400090C200008EC200008CC200008AC2000074
:1000500088C2000086C2000084C200000C94D54B08
:1000600080C200000C94AB4B0C94814B7AC2000010
:1000700078C2000076C2000074C2000072C20000A4
:1000800070C200006EC200006CC200006AC20000B4
:100090000C94574B0C942D4B64C200000C94334CC1
:1000A00060C200005EC200005CC200005AC20000D4
:1000B00058C2000056C2000054C2000052C20000E4
:1000C00050C200004EC200004CC200000C94034B12
:1000D0000C94D94A46C200000C94AF4A0C94854A4D
:1000E00040C200004E414E494E495459494E46CDFA
:1000F000CCCC3D0AD7233C17B7D13877CC2B3295DF
:1001000095E6241FB14F0A000020410000C84200BC
:10011000401C4620BCBE4CCA1B0E5AAEC59D740086
:10012000407A10F35A00A0724E18090010A5D4E8C6
:100130000000E87648170000E40B54020000CA9A59
:100140003B000000E1F505000080969800000040AB
:10015000420F000000A086010000001027000000F0
:1001600000E803000000006400000000000A000036
:100170000000000100000000002C76D888DC674FEA
:100180000823DFC1DFAE59E1B1B796E5E3E453C61A
:100190003AE651997696E8E6C28426EB898C9B6212
:1001A000ED407C6FFCEFBC9C9F40F2BAA56FA5F4BC
:1001B00090055A2AF75C936B6CF9676DC11BFCE0E4
:1001C000E40D47FEF520E6B500D0ED902E03009437
:1001D0003577050080841E080000204E0A000000CC
:1001E000C80C333333330F986E12831141EF8D21D6
:1001F00014893BE65516CFFEE6DB18D1844B381B3D
:10020000F77C1D901DA4BBE424203284725E228101
:1002100000C9F124ECA1E53D276364696E6F70733A
:100220007578585B00556E61626C6520546F204193
:1002300063636573732053442043617264007C3CA4
:100240003E5E2B3D3F2F5B5D3B2C2A225C001F1C3A
:100250001F1E1F1E1F1F1E1F1E000021002400271F
:10026000002A002D003000330001010000040107C6
:10027000010A01000020002300260029002C002F85
:100280000032000001000003010601090100000A1C
:100290000B02090C0D0E080703040100000000000A
:1002A000000000000000000000000000000000004E
:1002B000000000000000000000121110000000000B
:1002C000000000000000000000000000000000002E
:1002D0000000002121215254432054494D4520451E
:1002E00052524F572121212E2E2E2E20436F6E6EFB
:1002F00065637420746F20504320746F20526573BF
:10030000657400525443204E6F7420466F756E64BE
:10031000005761746368646F672061637469766114
:100320007465004C43442773204C45442077696C26
:100330006C205455524E204F4646206166746572BB
:1003400020626F6F74696E6700504F57455220539B
:100350004156494E47204F4E00576172696E6721E2
:1003600020506F77657220536176696E67204F4E1B
:100370002C204C43442773204C45442077696C6CF7
:100380002073687574646F776E206166746572207F
:10039000626F6F74696E6721004F70656E207075B3
:1003A0006D7000446576696365204944203D2000F6
:1003B0004461746120436F6C6C656374696E67207F
:1003C000537973740042696F6368656D6973747201
:1003D000792020202042756F79005344206F7220CD
:1003E000525443206572726F7200534420616E64F0
:1003F0002052544320506173730053442043686576
:10040000636B696E670052544320436865636B6990
:100410006E670047657420454550524F4D2064611A
:1004200074610044697361626C6520706172746903
:10043000616C2047505320446174610053656E73B2
:100440006F72204163746976617465004C45442085
:100450005465737400010210202008081020401019
:100460002040800201020108040201010204081078
:100470002040808040201008040201800402018096
:1004800040201008040201080402010102040810BF
:100490002040800102040810204080000022002536
:1004A0000028002B002E003100340002010000055E
:1004B0000108010B010505050507050808080802E4
:1004C0000202020A0A0808040404040101010101ED
:1004D0000101010303030303030303040707070CDC
:1004E0000C0C0C0C0C0C0C02020202060606060692
:1004F0000606060B0B0B0B0B0B0B0B02BA4DC85E63
:1005000011241FBECFEFD1E2DEBFCDBF00E00CBF94
:1005100018E0A0E0B2E0EEEFF1EE00E00BBF02C0A9
:1005200007900D92AE3EB107D9F723E1AEEEB8E0E9
:1005300001C01D92A238B207E1F712E0CFE7D2E086
:1005400000E006C021970109802FFE010E94576834
:10055000CE37D10780E00807A9F70E9422500C94FB
:10056000ED704ECD91E09093430C8093420C10922D
:10057000410C1092400C0895CF93DF93EC019A0147
:10058000AB01E889F98982E08083211581EE380783
:100590004105510581F160E079E08DE390E00E9432
:1005A0008C66215031094109510956954795379577
:1005B0002795EC85FD851082EE85FF852083188EBA
:1005C000EC89FD8986E08083EA89FB8980818061EE
:1005D0008083EA89FB89808188608083EA89FB893E
:1005E000808180688083EA89FB8980818F7D808318
:1005F000DF91CF910895E889F989108220E1D9CF60
:1006000008950895CF93DF93FC01828193819093A5
:1006100021118093201184819581A681B7818093D7
:10062000221190932311A0932411B093251180855A
:100630009185A285B3858093261190932711A0936D
:100640002811B0932911DF011C96CF014996CAE207
:10065000D1E12D912993A817B907D9F7818D928DF2
:1006600090933811809337118EE191E1DF91CF9112
:10067000089581E080935D1280935C128091541202
:1006800090915512A0915612B091571280934C122E
:1006900090934D12A0934E12B0934F128091681216
:1006A00090916912019741F410924C1210924D12E0
:1006B00010924E1210924F1208958230910538F028
:1006C000880F991F880F991F05970197F1F70895D3
:1006D0009091F30B8091F20B2FEF3FEF981748F4B6
:1006E000E92FF0E0E65EF34F208130E09F5F9093CA
:1006F000F30BC90108959091F30B8091F20B2FEF4A
:100700003FEF981748F4E92FF0E0E65EF34F2081C1
:1007100030E09F5F9093F30BC9010895CF92DF9271
:10072000EF92FF920F931F93CF93DF932091661167
:1007300030916711232B79F08EBD0DB407FEFDCFEC
:10074000DEB48D2DDF91CF911F910F91FF90EF902F
:10075000DF90CF90089520916E1130916F11C1E01C
:10076000232B09F0C0E8CC24C394982F9C2309F0D4
:10077000C12CD82F20916A1130916B1140916C11CE
:1007800050916D1160E271EA87E090E00E948C6602
:10079000122FDD2E00E0E22EF12C112311F0C70103
:1007A0008CDF80917011877F09F053C080917311A5
:1007B0008F3FA1F09D2F9C2381E009F480E08C15F0
:1007C00069F0E0917511F091761180917D11992376
:1007D000D1F19081892B8083CC24C394E09177114F
:1007E000F0917811808190917F11892B8083112362
:1007F00011F0C70162DF809174118F3F51F0E091D9
:100800007911F0917A11808190917E11892309F0FC
:100810000C2BE0917711F0917811908180917F11EC
:10082000809589238083809174118F3F09F0D02EA9
:1008300080916E1190916F11892B09F046C0CC0FF9
:10084000C111ABCF7ECF9081809589238083C12C4D
:10085000C5CFE0917711F0917811808190917F114F
:10086000892B8083112311F0C70127DF8091731139
:100870008F3F61F0E0917511F091761180917D11BB
:100880009D2F9C23F1F09081892B8083E09177113B
:10089000F0917811908180917F11809589238083D8
:1008A000809174118F3F09F4BECFE0917911F091DE
:1008B0007A11808190917E11892309F4B4CF0C2B99
:1008C000B2CF908180958923E0CFC695B9CF209192
:1008D00074133091751380917213909173132817CC
:1008E000390799F1E0917413F0917513E659FD4EB3
:1008F000808520917413309175132F5F3F4F3327FC
:100900003093751320937413982F40917413509162
:100910007513209172133091731342175307C1F06E
:10092000E0917413F0917513E659FD4E8085209186
:100930007413309175132F5F3F4F33273093751326
:1009400020937413282F822F08958FEF9FEFDCCF11
:100950002FEF3FEFF8CF20917213309173132F5F79
:100960003F4F332740917413509175132417350767
:1009700059F0E0917213F0917313E659FD4E8087A0
:100980003093731320937213089580342FE19207EC
:1009900014F40097F9F489E090E09093B90E8093F5
:1009A000B80E80E49FE12091B80E3091B90EA901F4
:1009B000440F551F440F551F407227702860242B89
:1009C00038E10FB6F894A895309360000FBE2093DD
:1009D00060000895803A2FE092074CF088E090E0A4
:1009E0009093B90E8093B80E80EA9FE0DCCF803DF3
:1009F00027E092074CF087E090E09093B90E809347
:100A0000B80E80ED97E0CFCF883E23E092074CF000
:100A100086E090E09093B90E8093B80E88EE93E054
:100A2000C2CF843F21E092074CF085E090E09093A4
:100A3000B90E8093B80E84EF91E0B5CF8A3F91054F
:100A40004CF084E090E09093B90E8093B80E8AEF5A
:100A500090E0A9CF883791054CF083E090E0909327
:100A6000B90E8093B80E88E790E09DCF8C33910546
:100A70004CF082E090E09093B90E8093B80E8CE336
:100A800090E091CF4E974CF081E090E09093B90EBA
:100A90008093B80E8EE190E086CF1092B90E10923E
:100AA000B80E8FE090E07FCF8091F20B9091F30B26
:100AB000891B990B0895E0915812F09159123097C3
:100AC00009F019940895FC01248135816217730798
:100AD00020F480819181009729F41092C20982EC60
:100AE00099E00895860F971F08950895DC01ED9110
:100AF000FC910190F081E02D1994DB0114964D9149
:100B00005C9115976D917C91DC01ED91FC910280D7
:100B1000F381E02D1994EF92FF920F931F93CF93DF
:100B2000DF938C017B01D0E0C0E0F701EC0FFD1FEB
:100B30006491662361F0D801ED91FC910190F08100
:100B4000E02DC8011995892B11F02196EECFCE0129
:100B5000DF91CF911F910F91FF90EF900895AF9289
:100B6000BF92CF92DF92EF92FF920F931F93CF939A
:100B7000DF936C017B018B01040F151FEB015E01FC
:100B8000AE18BF08C017D10759F06991D601ED9191
:100B9000FC910190F081E02DC6011995892B79F720
:100BA000C501DF91CF911F910F91FF90EF90DF90E2
:100BB000CF90BF90AF900895FC01A089B1898C912E
:100BC000A689B78982FD0FC09C91818D8F5F8F733D
:100BD000228D821749F0A18DAE0FBF2FB11D5D96FA
:100BE0009C93818F08958C910895FC01538D448DC1
:100BF000252F30E0842F90E0821B930B541710F0C8
:100C0000CF96089501970895FC01918D828D9817D4
:100C100061F0A28DAE0FBF2FB11D5D968C91928DAC
:100C20009F5F9F73928F90E008958FEF9FEF0895DD
:100C3000FC01918D828D981731F0828DE80FF11DA6
:100C4000858D90E008958FEF9FEF0895FC01918DC1
:100C5000228D892F90E0805C9F4F821B91098F73BA
:100C60009927089584E49CE0F1DF21E0892B09F4C1
:100C700020E0822F089581EE9CE0E8DF21E0892BBF
:100C800009F420E0822F08958EE79DE0DFDF21E068
:100C9000892B09F420E0822F08958BE19EE0D6DFB6
:100CA00021E0892B09F420E0822F0895FC01A48D16
:100CB000A80FB92FB11DA35ABF4F2C91848D90E07E
:100CC00001968F739927848FA689B7892C93A08961
:100CD000B1898C91837080648C93938D848D9813EB
:100CE00006C00288F389E02D80818F7D808308957E
:100CF000EF92FF920F931F93CF93DF93EC0181E06C
:100D0000888F9B8D8C8D98131AC0E889F989808112
:100D100085FF15C09FB7F894EE89FF896083E88945
:100D2000F98980818370806480839FBF81E090E037
:100D3000DF91CF911F910F91FF90EF900895F62EC4
:100D40000B8D10E00F5F1F4F0F731127E02E8C8D5E
:100D50008E110BC00FB607FCFACFE889F9898081A4
:100D600085FFF5CFCE01A2DFF2CFEB8DEC0FFD2F8B
:100D7000F11DE35AFF4FF0829FB7F8940B8FEA8979
:100D8000FB8980818062D0CFCF93DF93EC01888D87
:100D90008823B1F0AA89BB89E889F9898C9185FDFE
:100DA00003C0808186FD0CC00FB607FCF7CF8C9185
:100DB00085FFF2CF808185FFEDCFCE0177DFEACFCF
:100DC000DF91CF9108958150823108F05AC0E82F09
:100DD000F0E08827E151F94F8F4F0C9457680F07C7
:100DE0001307010707070B07410716071C07200712
:100DF00026072A072E073407380741073C07420712
:100E00004607809180008F778093800008958091BD
:100E100080008F7DF9CF80918000877FF5CF84B5EA
:100E20008F7784BD089584B58F7DFBCF8091B0000E
:100E30008F778093B00008958091B0008F7DF9CFB7
:100E4000809190008F77809390000895809190001A
:100E50008F7DF9CF80919000877FF5CF8091A000A2
:100E60008F778093A00008958091A0008F7DF9CFA7
:100E70008091A000877FF5CF809120018F778093AC
:100E800020010895809120018F7DF9CF809120016C
:100E9000877FF5CFCF93DF93282F30E0F901E35719
:100EA000FD4F8491F901EB5AFB4FD491F901EB54BA
:100EB000FB4FC491CC2399F0811185DFEC2FF0E03A
:100EC000EE0FFF1FED58FD4FA591B491EC91ED236E
:100ED00081E090E009F480E0DF91CF91089580E017
:100EE00090E0FACF1F93CF93DF93282F30E0F901E2
:100EF000E357FD4F8491F901EB5AFB4FD491F9016F
:100F0000EB54FB4FC491CC23A1F0162F81115BDF72
:100F1000EC2FF0E0EE0FFF1FE556FB4FA591B491CB
:100F20008FB7F894EC91111108C0D095DE23DC93B3
:100F30008FBFDF91CF911F910895DE2BF8CF8F9255
:100F40009F92AF92BF92CF92DF92EF92FF920F9358
:100F50001F93CF9310E000E0809178139091791364
:100F60000817190764F4E0916E12F0916F12E00F08
:100F7000F11F61E08081B6DF0F5F1F4FEDCF10E002
:100F800000E08BE4882E912C809178139091791356
:100F9000081719070CF05CC0E0916E12F0916F1207
:100FA000E00FF11F60E080819DDFC4010197F1F740
:100FB000F12CE12C8091761390917713E816F906C5
:100FC000DCF58091781390917913E89E6001E99E99
:100FD000D00CF89ED00C1124C00ED11EE0916C12E2
:100FE000F0916D12EE0DFF1D808154DFA090701204
:100FF000B0907112AC0CBD1CF501C0812C2F227079
:10100000892BA1F421110CC0C66081E0A4DC809181
:101010006A1290916B12C80ED91EF60180819BDC7A
:10102000F501C083FFEFEF1AFF0AC4CF2223C1F3FB
:10103000CD7FC86080E0EACFE0916E12F0916F1230
:10104000E00FF11F61E080814DDF0F5F1F4F9CCFEC
:10105000CF911F910F91FF90EF90DF90CF90BF90B5
:10106000AF909F908F900895CF93DF9390E0FC0115
:10107000EB5AFB4F24918B549B4FFC0184918823A6
:10108000C9F090E0880F991FFC01E75AFD4FA59128
:10109000B491FC01E556FB4FC591D49161110DC08F
:1010A0009FB7F8948C91209582238C938881282374
:1010B00028839FBFDF91CF910895623051F49FB78D
:1010C000F8943C91822F809583238C93E8812E2B7A
:1010D000EFCF8FB7F894EC912E2B2C938FBFEACFE4
:1010E0004F925F926F927F928F929F92AF92BF9238
:1010F000CF92DF92EF92FF920F931F93CF93DF93E4
:1011000000D01F921F92CDB7DEB78C0149835A835E
:101110006B837C8380918D028D32C9F08F3F09F4FF
:101120007FC00F900F900F900F900F90DF91CF9195
:101130001F910F91FF90EF90DF90CF90BF90AF90F5
:101140009F908F907F906F905F904F900895EBEFFE
:10115000F4E084918D8387FDE4CF61E08DE284DF4C
:101160009D81992321F08D81823009F0D3C14801FE
:10117000B12CA12C60E072E18AE790E0A501980112
:101180000E94606629013A0160E472E48FE090E019
:10119000A50198010E94606669017A0191E0C91A6F
:1011A000D108E108F1088D81823009F00FC19FEF6D
:1011B000C916D104E104F10409F00CF4A3C160E9FB
:1011C00070ED83E090E0A50198010E9460666901DE
:1011D0007A0181E0C81AD108E108F10883E09FEFA5
:1011E000C916D104E104F10409F00CF48CC168E4DF
:1011F00078EE81E090E0A50198010E9460666901A7
:101200007A0191E0C91AD108E108F1088FEFC816F8
:10121000D104E104F10411F00CF015C184E073C1B4
:101220008DE280938D02EBEFF4E094919D83892F02
:101230009F3F09F476CF923009F468C058F499239F
:1012400079F1913009F444C087FD6BCF61E08DE204
:101250000BDF89CF9D81943009F49AC008F478C0DF
:10126000953091F710922001109221018091210177
:101270008860809321018091210181608093210108
:10128000E2EEF4E0E491F0E0EE0FFF1FE556FB4FD5
:1012900085919491E2E8F4E0E491E093C60B5DCF90
:1012A00014BC15BC84B5826084BD85B5816085BDE4
:1012B000E2EEF4E0E491F0E0EE0FFF1FE556FB4FA5
:1012C00085919491E2E8F4E0E491E093CD0B45CF71
:1012D000109280001092810080918100886080933C
:1012E000810080918100816080938100E2EEF4E0D2
:1012F000E491F0E0EE0FFF1FE556FB4F85919491CE
:10130000E2E8F4E0E491E093CC0B27CF1092B00038
:101310001092B1008091B00082608093B000809103
:10132000B10081608093B100E2EEF4E0E491F0E07E
:10133000EE0FFF1FE556FB4F859194919093CB0BD9
:101340008093CA0BE2E8F4E0E491E093C90B05CF87
:10135000109290001092910080919100886080938B
:10136000910080919100816080939100E2EEF4E021
:10137000E491F0E0EE0FFF1FE556FB4F859194914D
:10138000E2E8F4E0E491E093C80B83E08D83E5CEDE
:101390001092A0001092A1008091A100886080931B
:1013A000A1008091A10081608093A100E2EEF4E0B1
:1013B000E491F0E0EE0FFF1FE556FB4F859194910D
:1013C000E2E8F4E0E491E093C70BC7CE8FEFC816D4
:1013D000D104E104F10409F00CF48FC068E478EE64
:1013E00081E090E0A50198010E94606669017A01A0
:1013F00091E0C91AD108E108F1088D81882309F428
:1014000057C184E09FEFC916D104E104F10409F04B
:1014100008F479C062E17AE780E090E0A5019401E8
:101420000E94606669017A0191E0C91AD108E10859
:10143000F1088FEFC816D104E104F10411F00CF0AB
:101440000DC186E060C064E274EF80E090E0A50129
:1014500094010E94606669017A0191E0C91AD1087D
:10146000E108F10885E0CECF62E17AE780E090E024
:10147000A50194010E94606669017A0181E0C81AA1
:10148000D108E108F1089FEFC916D104E104F10485
:1014900011F00CF0D3C094E085B5887F892B85BD11
:1014A000D801AA0FBB1F29813A814B815C810E9420
:1014B0007C6628EE33E040E050E00E948C669D811F
:1014C000923009F487C00CF0D9C0992309F473C095
:1014D000913009F026CED0928900C09288002093E6
:1014E000DE0B3093DF0B4093E00B5093E10B8091C8
:1014F0006F00826080936F0014CE8D81811102C0D5
:1015000092E0CACF82E09091B100987F892B8093BE
:10151000B100C6CFB12CA12C60E072E18AE790E067
:10152000A50198010E94606669017A0191E0C91ADB
:10153000D108E108F10891E0C114D10481E0E80686
:10154000F10484F068E478EE81E090E0A501980170
:101550000E94606669017A0191E0C91AD108E10828
:10156000F10893E08D81813039F480918100887F8A
:10157000892B8093810094CF8D81833039F48091C1
:101580009100887F892B809391008ACF8D81843050
:1015900039F48091A100887F892B8093A10080CFAE
:1015A0008D81853009F07CCF80912101887F892B46
:1015B0008093210175CFC7BC2093E20B3093E30BDE
:1015C0004093E40B5093E50B80916E008260809312
:1015D0006E00A7CDC092B3002093DA0B3093DB0BE3
:1015E0004093DC0B5093DD0B809170008260809300
:1015F000700097CDD0929900C09298002093D60B9E
:101600003093D70B4093D80B5093D90B8091710036
:1016100082608093710085CDD092A900C092A8000D
:101620002093D20B3093D30B4093D40B5093D50B14
:101630008091720082608093720073CD73016201A9
:101640002AE0F594E794D794C7942A95D1F791E0CE
:10165000C91AD108E108F10895E01ECF73016201B3
:101660009AE0F594E794D794C7949A95D1F781E0DE
:10167000C81AD108E108F10887E045CF8D81843090
:1016800059F20CF4B7CF853009F04BCDD092290137
:10169000C09228012093CE0B3093CF0B4093D00BF8
:1016A0005093D10B8091730082608093730039CD89
:1016B0009FEFC916D104E104F10411F00CF0D4CE6F
:1016C00093E0EACE1F93CF93DF93182FEB0161E0F5
:1016D000CBDC209731F460E0812FDF91CF911F9117
:1016E00001CCCF3FD10511F461E0F6CFE12FF0E05E
:1016F000E357FD4FE491E150E23108F0B3C0F0E070
:101700008827EA57F44F8F4F0C945768980BA00B1B
:10171000A50BAF0BB90B320CC30BCB0BD30BDD0BF3
:10172000E70BF10B000C0A0C320C140C1E0C280CED
:1017300084B5806884BDC7BDDF91CF911F910895A6
:1017400084B5806284BDC8BDF7CF80918000806879
:1017500080938000D0938900C0938800EDCF809162
:101760008000806280938000D0938B00C0938A00B9
:10177000E3CF80918000886080938000D0938D00BB
:10178000C0938C00D9CF8091B00080688093B00066
:10179000C093B300D1CF8091B00080628093B0003D
:1017A000C093B400C9CF809190008068809390006E
:1017B000D0939900C0939800BFCF80919000806231
:1017C00080939000D0939B00C0939A00B5CF8091F6
:1017D0009000886080939000D0939D00C0939C00FF
:1017E000ABCF8091A00080688093A0008091A00082
:1017F0008F7B8093A000D093A900C093A8009CCFBA
:101800008091A00080628093A000D093AB00C09331
:10181000AA0092CF8091A00088608093A000D0930E
:10182000AD00C093AC0088CF809120018068809388
:101830002001D0932901C09328017ECF80912001FF
:10184000806280932001D0932B01C0932A0174CF32
:1018500080912001886080932001D0932D01C09356
:101860002C016ACFC038D1050CF03ECF34CF3FB742
:10187000F89480919F099091A009A091A109B0913D
:10188000A20926B5A89B05C02F3F19F00196A11DFE
:10189000B11D3FBFBA2FA92F982F8827BC01CD01BA
:1018A000620F711D811D911D42E0660F771F881F19
:1018B000991F4A95D1F708958F929F92AF92BF9248
:1018C000CF92DF92EF92FF924B015C01D0DF6B0170
:1018D0007C01CDDF6C197D098E099F09683E73403C
:1018E00081059105B0F321E0821A9108A108B108A1
:1018F00088EEC80E83E0D81EE11CF11C811491040F
:10190000A104B10431F7FF90EF90DF90CF90BF902A
:10191000AF909F908F9008952FB7F89460919B0996
:1019200070919C0980919D0990919E092FBF089507
:10193000DC0150E0EEE4F2E081E0861730F49491AF
:10194000490F511D8F5F3196F8CF633038F0CD01CC
:1019500083709927892B11F44F5F5F4F9D012D5F95
:101960003F4F36952795369527956DE671E0A69FF2
:10197000C001A79F900DB69F900D11240197820F73
:10198000931F840F951F0895CF93CFB7F89480913C
:101990009909811123C0EAEEF4E08491EAE8F4E0C9
:1019A0009491E82FF0E0EE0FFF1FE75AFD4FA5914D
:1019B000B491EC91E92319F461E085E393DA61E0F5
:1019C00085E352DB8CB580618CBD8CB580648CBDA9
:1019D00061E084E349DB61E083E346DB80919909C0
:1019E0008F5F80939909CFBFCF910895089561E0EB
:1019F000FC01848177DA8091930981111092930917
:101A000008958EBD00000DB407FEFDCF8EB508957C
:101A1000EF92FF920F931F93CF93DF939091EF106C
:101A20009F3F39F4DF91CF911F910F91FF90EF907D
:101A3000E8CFD82FC0E007E010E0EE24E394F12CCB
:101A4000CC0F60E08091EF104DDAB701002E01C09D
:101A5000660F0A94EAF76D238091ED1043DA61E096
:101A60008091EF103FDA8091EE1014DA892B09F0A3
:101A7000C1600150110920F78C2FDF91CF911F9188
:101A80000F91FF90EF9008958FEFBBCF0F931F93AF
:101A9000CF93DF93EC0140DF8B01F6DF8F3F61F0E6
:101AA0003BDF601B710B6C177D07B8F380E0DF91A3
:101AB000CF911F910F91089581E0F9CF8CBD9DBD0D
:101AC0000895EF92FF920F931F93CF93DF93EC0152
:101AD0007B018A018091661190916711892B39F001
:101AE000E0916811F091691180819181E7DF60E0F8
:101AF00080917111F7D988810E948E03E7010E0D44
:101B00001F1D0C171D0729F08FEF0E948E0389936C
:101B1000F8CF61E080917111E5D981E0DF91CF913B
:101B20001F910F91FF90EF900895CF93DF931F9235
:101B30001F92CDB7DEB71A82898341E050E0BE0123
:101B40006E5F7F4FCE010196BCDF8A810F900F90B0
:101B5000DF91CF910895CF93DF93C62FD82FD06810
:101B60008091661190916711892B39F0E09168118D
:101B7000F091691180819181A1DF60E08091711104
:101B8000B1D98D2F0E948E038C2F0E948E0361E0AD
:101B900080917111DF91CF91A5C9CF92DF92EF9221
:101BA000FF92CF93DF9300D01F92CDB7DEB7809125
:101BB000831190918411892B29F580E0B6DF8F770E
:101BC000682F606480E0C7DFA7DE6B017C01809135
:101BD0008311909184110297A9F080E0A6DF86FF1F
:101BE00011C09ADE6C197D098E099F096B3F710542
:101BF0008105910508F03FC06AE070E080E090E068
:101C00005BDEE5CF19821A821B828CE08C8343E075
:101C100050E0BE016F5F7F4FCE01049652DF6981B5
:101C20007A81762767277627CB01B0E0A0E0BA2F2C
:101C3000A92F982F88272B81822BA7FDBF6FBC016E
:101C4000CD0125E095958795779567952A95D1F7EC
:101C50000E94346520E030E040E05CE30E94936540
:101C60000F900F900F900F90DF91CF91FF90EF901A
:101C7000DF90CF90089560E070E080EC9FE7F0CFB8
:101C800081E053DF807F682F636081E064CFCF9372
:101C9000DF93EC0180919309811108C081E080936A
:101CA00093098091BA0E9091BB0E08DF60E08C81A1
:101CB000DF91CF9117C98F929F92AF92BF92FF92FF
:101CC0000F931F93CF93DF93EC01F62E49015A0136
:101CD0008E81882379F08F8198859C012F5F3F4FFB
:101CE00038872F838230924010F4CEDEF4CFCE01BD
:101CF0007EDE1E82CE01CBDF8CE291E0C7DE8F2D2F
:101D000080647FDE08E110E0D501C401002E04C02C
:101D1000B695A795979587950A94D2F772DE0850E5
:101D20001109083F8FEF180779F785E9FF2021F0A7
:101D300028E087E8F2128FEF64DE10E0A5DE8A87E4
:101D400087FF04C01F3F11F01F5FF8CFDF91CF91D5
:101D50001F910F91FF90BF90AF909F908F9008952B
:101D6000AF92BF92CF92DF92EF92FF920F931F93A9
:101D7000CF93DF93EC016901C801820F931F81307B
:101D8000924048F58E81882379F088819981AA81D3
:101D9000BB8184179507A607B70731F48F81988513
:101DA000C816D90608F03CC0488359836A837B83F0
:101DB0008B85833039F089E0440F551F661F771FEC
:101DC0008A95D1F79A01AB0161E1CE0174DF8823D6
:101DD00081F083E08D83CE010ADE80E0DF91CF9138
:101DE0001F910F91FF90EF90DF90CF90BF90AF9039
:101DF000089592DD5B0148DE8A878F3F59F48CDDC0
:101E00006A197B096D327140B0F38FE08D83CE018A
:101E1000EEDDE1CF8E3F81F418861F8281E08E8354
:101E20008F8198858C159D0548F42EDE8F819885CD
:101E3000019698878F83F4CF8DE0E8CF6701E00E9D
:101E4000F11E22DEF60181936F01EE15FF05C9F741
:101E50008F819885080F191F18870F83898588231C
:101E600019F00115124090F08E81882379F08F814E
:101E700098859C012F5F3F4F38872F838230924097
:101E800010F402DEF4CFCE01B2DD1E8281E0A6CFD7
:101E9000CF92DF92EF92FF920F93CF93DF93EC01FB
:101EA000690182E1411551056105710591F08B854C
:101EB000833039F089E0440F551F661F771F8A95DC
:101EC000D1F79A01AB0168E1CE01F5DE882319F064
:101ED00084E08D8326C08EEF94DD76018EEFD81AD4
:101EE000F70181917F018DDDEC14FD04C9F78FEFBF
:101EF00088DD8FEF86DDC8DD8A878F71853069F4D4
:101F0000011113C0CE0173DD81E0DF91CF910F91FC
:101F1000FF90EF90DF90CF90089581E18D83CE0107
:101F200066DDCE0164DD80E0F0CF88E592E0AEDDD5
:101F3000811102C085E1CDCF20E030E0A9016DE044
:101F4000CE01B9DE882311F084E1C3CF9DDD81117C
:101F5000FBCFD8CF0F93409195095091960960918E
:101F6000970970919809411551056105710591F026
:101F7000082F24EC39E08091C40B9091C50B88DFC9
:101F8000882349F0109295091092960910929709AA
:101F90001092980981E00F9108950F93CF93C82F65
:101FA00080919409811105C0C1E08C2FCF910F91D0
:101FB000089540911402509115026091160270919B
:101FC00017020C2F24EC39E08091C40B9091C50BC3
:101FD0005FDF811102C0C0E0E8CFCC2329F381E0AC
:101FE000B9DF8823C1F310929409DFCF8F929F92BB
:101FF000AF92BF92EF92FF920F931F93CF934B013B
:102000005C01C42F8091140290911502A0911602D8
:10201000B091170288159905AA05BB0541F181E029
:10202000BCDF81110BC080E0CF911F910F91FF9019
:10203000EF90BF90AF909F908F90089584ECE82E22
:1020400089E0F82E00E012E030E020E0B501A401C4
:102050008091C40B9091C50B83DE882321F380927D
:10206000140290921502A0921602B09217024091AB
:1020700094094C2B4093940981E0D6CF8F929F9284
:10208000AF92BF92CF92DF92EF92FF92CF932CEB61
:102090003EE03093C50B2093C40B882309F46BC03A
:1020A00040E060E070E0CB01A1DF81110BC080E077
:1020B000CF91FF90EF90DF90CF90BF90AF909F9027
:1020C0008F9008958091820B8F7789F780918E0B86
:1020D00090918F0BA091900BB091910B843691054C
:1020E000A105B10520F3C0908A0BD0908B0BE09036
:1020F0008C0BF0908D0BC114D104E104F104B9F202
:1021000040E0C701B60172DF882389F28091CF09D0
:102110009091D0098115924051F6A091D409AA233B
:1021200031F26091D2097091D3096115710509F4FA
:10213000BECF2091D109222309F4B9CFA093DA0EA2
:102140002093CC0E90E080E030E0E1E0F0E0C82F9A
:10215000AF01082E02C0440F551F0A94E2F724175E
:10216000350769F041E0480F01968930910579F70C
:102170004093D50E9CCFC12CD12C7601C1CF80933A
:10218000D50E2091DA093091DB0950E040E02115AD
:10219000310541F42091E8093091E9094091EA09BB
:1021A0005091EB092093CD0E3093CE0E4093CF0E7D
:1021B0005093D00E46015701860E971EA11CB11CEC
:1021C0008092DB0E9092DC0EA092DD0EB092DE0EBD
:1021D000E091D509F091D609F093E10EE093E00E7D
:1021E000B0E00E947C66DC01CB01880D991DAA1D20
:1021F000BB1D8093E20E9093E30EA093E40EB09388
:10220000E50E25E0EE0FFF1F2A95E1F7E150FE4FA6
:10221000EF2FFF27E6958E0F9F1FA11DB11D809305
:10222000D60E9093D70EA093D80EB093D90E80906F
:10223000D7099090D809B12CA12C8114910441F4B4
:102240008090E4099090E509A090E609B090E70934
:10225000C81AD90AEA0AFB0AC80CD91CEA1CFB1CDA
:1022600004C0F694E794D794C794CA95D2F7C09265
:10227000D10ED092D20EE092D30EF092D40E85EF12
:10228000C8168FE0D806E104F10428F48CE08093AE
:10229000DF0E81E00DCF80E125EFC2162FEFD206D1
:1022A000E104F104A0F38091F0099091F109A0916B
:1022B000F209B091F3098093E20E9093E30EA0939C
:1022C000E40EB093E50E80E2E2CF4F925F926F9200
:1022D0007F928F929F92AF92BF92CF92DF92EF92B6
:1022E000FF920F931F93CF93DF93EC014230510580
:1022F0006105710590F480E0DF91CF911F910F91FE
:10230000FF90EF90DF90CF90BF90AF909F908F9015
:102310007F906F905F904F90089589859A85AB85E7
:10232000BC850196A11DB11D84179507A607B707A7
:1023300010F3CB88DC88ED88FE888F89803109F026
:1023400042C0BB27A72F962F852F480159012A018C
:102350003B01C80ED91EEA1EFB1E8091140290910B
:102360001502A0911602B0911702C816D906EA0606
:10237000FB0699F58F898031B9F5B301A201552784
:1023800066277727440F551F4C53564FFA01918209
:102390008082809194098160809394098A89823037
:1023A00080F08D819E81AF81B8858C0D9D1DAE1D05
:1023B000BF1D8093950990939609A0939709B093B8
:1023C000980981E099CFDB01CA01E7E0B695A795AE
:1023D00097958795EA95D1F7B8CF40E0C701B60148
:1023E00005DE8111C7CF87CFB301A2014F775527F3
:1023F00066277727440F551F440F551F4C53564FE0
:10240000FA0180829182A282B382C3CF8F929F927F
:10241000AF92BF92CF92DF92EF92FF920F931F93F2
:10242000CF93DF93FC0181859285A385B4850196C6
:10243000A11DB11D84179507A607B70770F480E0AA
:10244000DF91CF911F910F91FF90EF90DF90CF9090
:10245000BF90AF909F908F90089583889488A588AF
:10246000B6888789803189F5BB27A72F962F852FBE
:10247000E9016A017B018F01BC01CD01680D791D65
:102480008A1D9B1D8090140290901502A090160248
:10249000B090170286169706A806B90601F5F8014E
:1024A0008789803109F5DD24EE24FF24F601EE0F43
:1024B000FF1FEC53F64F80819181B0E0A0E088834C
:1024C0009983AA83BB8381E0BBCFDB01CA01C7E04C
:1024D000B695A79597958795CA95D1F7C9CF40E04E
:1024E00085DD8111DCCFABCFE894C7F8DD24EE2485
:1024F000FF24F601EE0FFF1FEE0FFF1FEC53F64F08
:1025000080819181A281B381BF70D9CF4F925F92B8
:102510006F927F92AF92BF92CF92DF92EF92FF9233
:102520000F931F93CF93DF9300D01F92CDB7DEB7E9
:102530008C0149835A836B837C835901C12CD12C34
:102540007601412C82E0582E612C712C49815A81F0
:102550006B817C819E012F5F3F4FC80157DF88232D
:1025600039F1F8018585A301920104C0220F331FC0
:10257000441F551F8A95D2F7DA01C901C80ED91E2A
:10258000EA1EFB1E49815A816B817C8187898031DB
:1025900011F188EF9FEFAFEFBFE0481759076A07C7
:1025A0007B07A0F2F501C082D182E282F38281E052
:1025B0000F900F900F900F90DF91CF911F910F917F
:1025C000FF90EF90DF90CF90BF90AF907F906F9093
:1025D0005F904F90089588EF9FEFA0E0B0E0DDCFCF
:1025E000CF93DF93FC012581222321F080E0DF914E
:1025F000CF910895EC018091DF0E803159F582E092
:102600008583178A108E118E128E8091E00E909124
:10261000E10EB0E0A0E025E0880F991FAA1FBB1FC4
:102620002A95D1F7838B948BA58BB68B88EC9EE093
:102630009C8F8B8F81E08C831E821F821886198667
:102640001A861B861C861D861E861F86188A198A76
:102650001A8ACDCF803251F683E085834091E20E15
:102660005091E30E6091E40E7091E50E478B508F10
:10267000618F728F9F012D5E3F4F88EC9EE046DF99
:102680008111D4CFB3CF8F929F92AF92BF92CF924E
:10269000DF92EF92FF920F931F93CF93DF93EC01A2
:1026A0008D8181110EC080E0DF91CF911F910F913C
:1026B000FF90EF90DF90CF90BF90AF909F908F9062
:1026C00008950B891C892D893E8904171507260753
:1026D000370748F34A015B01823031F48A869B86D2
:1026E000AC86BD8681E0E0CF81149104A104B104E1
:1026F00049F41E821F82188619861A861B861C863C
:102700001D86F0CF0A851B852C853D85EB8DFC8DC4
:10271000858590E00996B901A801415051096109E8
:102720007109082E04C076956795579547950A94C8
:10273000D2F775016401E1E0CE1AD108E108F10891
:1027400004C0F694E794D794C7948A95D2F7C41638
:10275000D506E606F70620F0012B022B032B09F520
:102760008F89988DA98DBA8D8E839F83A887B9870D
:102770008E010A5F1F4FC114D104E104F10409F472
:10278000ADCF4E815F816885798598018B8D9C8D59
:102790003DDE91E0C91AD108E108F1088111EBCFC3
:1027A00082CFC41AD50AE60AF70AE2CF3F924F92C7
:1027B0005F926F927F928F929F92AF92BF92CF92D1
:1027C000DF92EF92FF920F931F93CF93DF93CDB7DA
:1027D000DEB72C970FB6F894DEBF0FBECDBF5C01FD
:1027E000DC015B968D909C905C9716964D905D9069
:1027F0006D907C901997411451046104710409F49F
:1028000067C0BFEF4B1A5B0A6B0A7B0A312CF401DD
:1028100081859285A385B4859C01AD012F5F3F4FD3
:102820004F4F5F4F29873A874B875C87730162015F
:102830001D821E821F821886F40181859285A385E0
:10284000B4852D813E814F815885281739074A0765
:102850005B0708F054C089859A85AB85BC858C15CB
:102860009D05AE05BF0550F482E0C82ED12CE12CA9
:10287000F12C92E0492E512C612C712C9E012F5F7E
:102880003F4FB701A601C401C1DD8823C1F1898191
:102890009A81AB81BC81892B8A2B8B2B09F1260174
:1028A00037019FEF491A590A690A790A2D813E8139
:1028B0004F8158852F5F3F4F4F4F5F4F2D833E8392
:1028C0004F8358873FEFC31AD30AE30AF30AB4CF02
:1028D000F40140805180628073803324339497CF19
:1028E000C414D504E604F70409F70FEF1FEF2FEF28
:1028F0003FE0B701A601C401E8DC811119C080E006
:102900002C960FB6F894DEBF0FBECDBFDF91CF91EE
:102910001F910F91FF90EF90DF90CF90BF90AF90FD
:102920009F908F907F906F905F904F903F90089511
:10293000D50116964D915D916D917C911997411538
:1029400051056105710531F097018601C401BDDCB7
:102950008823A9F2D5011696CD92DD92ED92FC92D4
:102960001997332051F0D701C6010196A11DB11D61
:10297000F40180839183A283B383F5018789908DCD
:10298000A18DB28D892B8A2B8B2B39F48481C78A38
:10299000D08EE18EF28E80688483F501848180621E
:1029A000848381E0ADCF1F93CF93DF93FC0125811A
:1029B0002223C1F1162FEC01848187FF29C066858F
:1029C00077858089918941E011DB882359F1EA8973
:1029D00080E2E89FF0011124EC53F64F309711F19B
:1029E0008D81823040F48B899C89AD89BE89848F2A
:1029F000958FA68FB78F8F89988D938F828F8F89B0
:102A0000988DA98DBA8DB58BA48B8C818F778C8393
:102A1000111103C08C818F7E8C83812FDF91CF9128
:102A20001F91BBCA80E0DF91CF911F910895FF9263
:102A30000F931F93CF93DF93EC018D81813041F091
:102A400090E080E0DF91CF911F910F91FF9008956A
:102A50008C8181FFF5CF82FD18C00091C40B1091CD
:102A6000C50BC80114D910D8F82EC8010E94F70C64
:102A70008FEFF812E5CF8C8185FF19C060E0CE01A1
:102A800092DF8C818F7D8C83DBCF4B895C896D8954
:102A90007E898A859B85AC85BD8584179507A607A9
:102AA000B707D9F2CE01EFDD8111D7CFC9CF409161
:102AB0009509509196096091970970919809452B55
:102AC000462B472B19F080E045DABACF80618C8322
:102AD0002A853B85317080E092E0821B930BB2CF58
:102AE000CF93DF93EC0161E05EDF882311F01D825C
:102AF00081E0DF91CF9108952F923F924F925F92A4
:102B00006F927F928F929F92AF92BF92CF92DF92FD
:102B1000EF92FF920F931F93CF93DF9300D01F92FA
:102B20001F92CDB7DEB77C015B01342E5D83DC01E3
:102B300015968C911597813009F0CBC014962C9086
:102B400021FEC7C022FCB2C0C32CDD8022947FE0EE
:102B500027222094B22DB1702B2ED7011A964D91B9
:102B60005D916D917C911D97C114D10409F422C12E
:102B70005B968D919C915C97FC0174807A948A019C
:102B80009B0169E036952795179507956A95D1F7CA
:102B900070228A01117071101FC001151105E1F436
:102BA00016964D915D916D917C9119974115510546
:102BB0006105710509F096C057968D919D910D9014
:102BC000BC91A02D0097A105B10509F0ACC0C701CB
:102BD000EDDD882309F47DC080E092E0801B910B3D
:102BE00046018C159D0508F44C01D7015B964D916B
:102BF0005C915C9716968D919D910D90BC91A02D46
:102C00000297A109B109FA01258504C0880F991F0F
:102C1000AA1FBB1F2A95D2F74685578560897189FF
:102C2000840F951FA61FB71F9C01AD01270D311DF5
:102C3000411D511D29013A01811432E0930609F02A
:102C400078C08091140290911502A0911602B09163
:102C5000170284159505A605B70559F48FEF9FEF68
:102C6000DC018093140290931502A0931602B09396
:102C70001702022D9501B301A2018091C40B90911E
:102C8000C50B06D9882329F19EEFB91AC818D908AF
:102C9000F70182859385A485B585880D991DA11DB1
:102CA000B11D82879387A487B58757CFF7014389E2
:102CB00054896589768982859385A485B585481769
:102CC00059076A077B0709F43FCFC701DCDC811194
:102CD0003BCF81E090E0D70113969C938E9312979F
:102CE00080E006C09E012F5F3F4F90DB811102C044
:102CF00090E077C089819A81AB81BC81F701238DF7
:102D0000348DF901278948EF5FEF60E070E02031F2
:102D100021F048EF5FEF6FEF7FE084179507A6077C
:102D2000B70708F054CFF70186839783A087B18750
:102D300053CF0115110591F5D7011A964D915D916B
:102D40006D917C911D9753968D919D910D90BC91A5
:102D5000A02D481759076A077B0700F181E01DD9AC
:102D6000882309F4B6CF4092140250921502609263
:102D700016027092170280919409816080939409E1
:102D8000C8018C53964FD5019C01280D391DFC01BB
:102D90002E173F0751F04D914193FACF41E0C30107
:102DA000B20124D98111ECCF94CF281B390BA20E8C
:102DB000B31E6CCFF70183899489A589B6898417DE
:102DC0009507A607B70738F48481438B548B658B2E
:102DD000768B80688483F701848183FD1AC0832DFC
:102DE0009D810F900F900F900F900F90DF91CF91DA
:102DF0001F910F91FF90EF90DF90CF90BF90AF9019
:102E00009F908F907F906F905F904F903F902F900A
:102E1000089561E0C701C7DD882309F45ACFDFCFE9
:102E2000CF93DF931F92CDB7DEB7698341E050E0C7
:102E3000BE016F5F7F4F60DE0F90DF91CF910895ED
:102E4000FC01DB0112968D919C91139793838283F1
:102E50008DE093E09183808314968C911497848302
:102E600015968C911597858316964D915D916D9170
:102E70007C91199746835783608771871A964D9185
:102E80005D916D917C911D9742875387648775870B
:102E90001E964D915D916D917C9151974687578714
:102EA000608B718B52968C915297828B53964D9179
:102EB0005D916D917C915697438B548B658B768B8E
:102EC00057964D915D916D917C915A97478B508F9C
:102ED000618F728F5B968D919C91948F838F0895F3
:102EE000FC01818D928D009711F061E05CCD089519
:102EF000DC015996ED91FC913097B9F08389948962
:102F0000A589B6894285538564857585841B950B93
:102F1000A60BB70B811520E89207A105B10538F083
:102F20008FEF9FE7A0E0B0E0089590E080E0089583
:102F3000DC0159968D919C91009739F0DC01ED915F
:102F4000FC910480F581E02D199490E080E00895D3
:102F5000CF93DF93EC01E98DFA8D309749F481E04E
:102F600090E09B838A8390E080E0DF91CF91089589
:102F700013821282898D9A8DBFDDE98DFA8D2281AF
:102F80003381232B61F7F1CFCF93DF931F92CDB71E
:102F9000DEB76983DC01ED91FC910280F381E02DC5
:102FA00041E050E0BE016F5F7F4F19950F90DF91B8
:102FB000CF9108952F923F924F925F926F927F929E
:102FC0008F929F92AF92BF92CF92DF92EF92FF9239
:102FD0000F931F93CF93DF9300D0CDB7DEB7FC01E3
:102FE0008581811118C08FEF9FEF0F900F900F9088
:102FF000DF91CF911F910F91FF90EF90DF90CF90D5
:10300000BF90AF909F908F907F906F905F904F9008
:103010003F902F900895848180FFE5CF43895489A4
:103020006589768982859385A485B585312C212C87
:10303000481759076A077B0719F022242394312C7B
:103040006F012101CE0101963C01DF011696BB8381
:10305000AA834114510409F4C4C0F6014285538582
:10306000648575854A01F1E09F22D6015B968D91BA
:103070009C915C978A019B01E9E03695279517950D
:103080000795EA95D1F71596EC91E230E9F5FC0148
:10309000628D738D848D958D600F711F821F931FBC
:1030A000A12C22E0B22EA818B9084A145B0408F437
:1030B0005201F601248126FD04C0A114F2E0BF06EE
:1030C00071F40091140210911502209116023091B2
:1030D0001702061717072807390709F05DC040E0F7
:1030E0000E94F60F882309F47ECFC4018C53964FBB
:1030F000D3019C012A0D3B1DFC012E173F0709F44B
:103100006BC041914D93F9CFDC011496BC90BA94F9
:10311000B0228114910479F4B1100DC0452B462BD7
:10312000472B69F5F6018789908DA18DB28D868335
:103130009783A087B187D6015B96ED91FC915C9750
:1031400016966D917D918D919C91199762507109A0
:1031500081099109258504C0660F771F881F991F73
:103160002A95D2F70685178520893189600F711F4E
:10317000821F931F6B0D711D811D911D91CFD60173
:1031800016964D915D916D917C9119972A813B81A5
:103190003DD98111D0CF27CF730185019401AB01B7
:1031A000BC018091C40B9091C50B0E94B00E882386
:1031B00009F419CF6A0C7B1CF60182859385A485DE
:1031C000B5858A0D9B1DA11DB11D82879387A4879C
:1031D000B5874A185B083DCF281B390B620E731E5A
:1031E000EBCF2A94232809F0FECE898190E0FDCE12
:1031F000FC01818D928D009709F0DCCE8FEF9FEF5F
:1032000008950F931F93CF93DF93EC01898D9A8DCF
:1032100010E000E0009789F0CDDE8C010F3F100731
:1032200061F0898D9A8DFC01428553856485758591
:10323000415051096109710926DAC801DF91CF9126
:103240001F910F91089520916E09260F3327331F88
:1032500021323105ECF420913A0CFC0190E080E041
:10326000243069F082E00895A0916E092191AC01AB
:10327000425B564FA40FB52FB11D2C9301968617B4
:1032800098F380916E09680F60936E0980E008954D
:1032900081E0089510923A0C81E08093190C10920D
:1032A000140C61E084E10E94720761E085E10E94F4
:1032B0007207E9EBF0E080818E7F808380818D7FD3
:1032C000808388E48093B80085E48093BC000895EF
:1032D0001092F30B1092F20B1092410C1092400CD2
:1032E000D9DF80E093E09093F10B8093F00B81E0C5
:1032F00093E09093EF0B8093EE0B0895CF93DF93C1
:1033000091E090934D098823B1F0C091B800D0911D
:10331000BA008091BC008A7B8093BC0060E084E1AD
:103320000E94720760E085E10E947207B3DFD093CC
:10333000BA00C093B800DF91CF910895CF92DF9289
:10334000EF92FF920F931F93CF93DF93D82FC62F47
:10335000613208F097C00E94370C6B017C018091AC
:103360003A0C81116BC081E080933A0C8093190C68
:103370009FEF9093180C1092170C9C0F9093160CC3
:103380008093150C8091150CDD0FD82BD093150C64
:103390008091140C813009F077C01092140C0E94B7
:1033A000370C6B017C018091150C8093BB008091E0
:1033B0003C0C90913D0CA0913E0CB0913F0C892BA0
:1033C0008A2B8B2BA1F00E94370C00913C0C1091A2
:1033D0003D0C20913E0C30913F0C6C197D098E09FB
:1033E0009F09061717072807390708F448C0809176
:1033F000BC0083FDD8CF85EC8093BC000E94370CC5
:103400006B017C0180913A0C813009F43FC08091BE
:10341000170C8C1710F4C091170CE4EFFBE0AAE135
:10342000BCE080E08C1354C08C2FDF91CF911F91B2
:103430000F91FF90EF90DF90CF90089580913C0C1A
:1034400090913D0CA0913E0CB0913F0C892B8A2BA2
:103450008B2B09F484CF0E94370C00913C0C109107
:103460003D0C20913E0C30913F0C6C197D098E096A
:103470009F09061717072807390708F070CF8091B2
:103480003B0C3CDFC0E0D0CF85EEB6CF80913C0C4A
:1034900090913D0CA0913E0CB0913F0C892B8A2B52
:1034A0008B2B09F4AFCF0E94370C00913C0C10918C
:1034B0003D0C20913E0C30913F0C6C197D098E091A
:1034C0009F09061717072807390708F09BCFD7CFA2
:1034D00091919D938F5FA6CF0895E091F30B80911A
:1034E000F20BE81730F4F0E0E65EF34F808190E0F5
:1034F00008958FEF9FEF0895CF92DF92EF92FF92A2
:103500000F931F93CF93DF937C01CB018A0120910E
:10351000430C222389F0EB016B01C40ED51ECC15A0
:10352000DD0561F06991D701ED91FC910190F08189
:10353000E02DC7011995F3CF642F85DEC801DF9117
:10354000CF911F910F91FF90EF90DF90CF90089552
:10355000CF93DF931F92CDB7DEB769832091430CE1
:103560002223F9F02091400C203258F021E030E085
:10357000FC013383228390E080E00F90DF91CF91B4
:1035800008958091410CE82FF0E0E35DF64F9981BA
:1035900090838F5F8093410C8093400C81E090E09A
:1035A000ECCF61E0CE0101964EDEF8CFCF92DF92F4
:1035B000EF92FF920F931F93CF93DF93D091400C24
:1035C00081E0D13208F09BC0C091420C0E94370CC0
:1035D0006B017C0180913A0C81116CC082E0809378
:1035E0003A0C81E08093190C8FEF8093180C1092A5
:1035F000170CD093160CADE2B9E0E4EFFBE080E0ED
:10360000D8138CC01092150C8091150CCC0FC82BC0
:10361000C093150C8091140C813009F083C0109276
:10362000140C0E94370C6B017C018091150C809367
:10363000BB0080913C0C90913D0CA0913E0CB09150
:103640003F0C892B8A2B8B2BA1F00E94370C009109
:103650003C0C10913D0C20913E0C30913F0C6C19AC
:103660007D098E099F09061717072807390708F4EF
:1036700042C08091BC0083FDD8CF85EC8093BC0014
:103680000E94370C6B017C0180913A0C823009F466
:103690004BC08091180C8F3F09F468C08091180CC2
:1036A000803209F465C08091180C803309F462C03F
:1036B00084E025C080913C0C90913D0CA0913E0C83
:1036C000B0913F0C892B8A2B8B2B09F483CF0E945E
:1036D000370C00913C0C10913D0C20913E0C309128
:1036E0003F0C6C197D098E099F09061717072807DB
:1036F000390708F06FCF80913B0C00DE85E0109217
:10370000410C1092400C1092430CDF91CF911F910D
:103710000F91FF90EF90DF90CF9008959D9191933E
:103720008F5F6ECF85EEAACF80913C0C90913D0CBF
:10373000A0913E0CB0913F0C892B8A2B8B2B09F466
:10374000A3CF0E94370C00913C0C10913D0C2091AE
:103750003E0C30913F0C6C197D098E099F090617AC
:1037600017072807390708F08FCFC5CF80E0C7CFEC
:1037700082E0C5CF83E0C3CFCF93DF93D82FC62F8E
:103780008091EC108F3F19F58091E3100E94B202F6
:103790008091D9109091DA10DC01ED91FC910190AB
:1037A000F081E02D6D2F19958091D9109091DA104C
:1037B000DC01ED91FC910190F081E02D6C2F1995C9
:1037C0008091D9109091DA10DF91CF91EFCE809156
:1037D000EF108F3F21F482E591E00E945E0D60E0E2
:1037E0008091EC100E9472078D2F8F770E94080D38
:1037F0008C2F0E94080D61E08091EC10DF91CF9139
:103800000C9472070F931F93CF938C01C62FFC016A
:1038100084810E94B202F80163856C2B85E09FE0F1
:1038200097DE85E09FE0CF911F910F91BFCE90E092
:1038300080E00895FC01828193819C01225031092E
:103840002330310560F48330910551F4DF01AB5B27
:10385000BF4F1D921C929183808313821282089520
:1038600084309105C1F7DF01A95BBF4F2D913C91D9
:10387000119712972D933C93EECFCF93DF93EC01EA
:103880008A859B85AC85BD858E839F83A887B987F4
:103890000E948C0C6A837B838C839D8381E0898367
:1038A0008883DF91CF910895CF93DF93EC018E81D0
:1038B0009F81A885B9858A839B83AC83BD830E9441
:1038C0008C0C6A877B878C879D8781E089838883BE
:1038D000DF91CF91089548EE53E060E070E082E31D
:1038E00090E00C9470089C01892BB1F0032E000C21
:1038F000440B550B2150310941095109A9EBB0E0A6
:103900000E947C6623E630E040E050E00E94606662
:103910002A5B3F4F4F4F5F4FB90186E00C94620B1B
:103920008F929F92AF92BF92CF92DF92EF92FF92CF
:10393000C090F208D090F308E090F408F090F508F9
:10394000A70196016091FA087091FB088091FC082C
:103950009091FD080E94BD664B015C01A701960194
:103960006091EE087091EF088091F0089091F10855
:103970000E94BD669B01AC01C501B4010E94226793
:1039800020E030E048EC52E40E9493650E948A6790
:1039900077FF02C070E060E0CB016436710514F07F
:1039A00083E690E0FF90EF90DF90CF90BF90AF90D4
:1039B0009F908F90089584E49CE00E94260618163C
:1039C00019062CF484E49CE00E940406F4CF0895C8
:1039D00081EE9CE00E942606181619062CF481EE52
:1039E0009CE00E940406F4CF0895CF92DF92EF92FC
:1039F000FF921F93CF93DF93EC0180E2689FF00169
:103A00001124EC53F64F9385917161F0842F8274E9
:103A100049F080E0DF91CF911F91FF90EF90DF9010
:103A2000CF900895142F6A8B809114029091150203
:103A3000A0911602B09117028E879F87A88BB98B31
:103A4000C488D588F12CE12C7601DD24CC24CF8AE2
:103A5000D88EE98EFA8E828D938DB0E0A0E0AC0115
:103A6000BD014C295D296E297F294F8B588F698FA5
:103A70007A8F83858871B1F4848D958DA68DB78DED
:103A80008B8B9C8BAD8BBE8B81E08D831F701C83D9
:103A90001E821F82188619861A861B861C861D8622
:103AA00081E0B8CF803109F0B4CF9E012D5E3F4F49
:103AB0008B8D9C8D0E948612882309F4AACF84E006
:103AC000E4CF862F642F3ADC1092F30B8093F20B35
:103AD00008958F929F92AF92BF92CF92DF92EF9212
:103AE000FF92F82E8091EC108F3F09F067C0809113
:103AF000E3100E94B2028091D9109091DA10DC019B
:103B0000ED91FC910190F081E02D6F2D1995809140
:103B1000D9109091DA104ADD43E06091E310809172
:103B2000D9109091DA10CDDF8091D9109091DA10F0
:103B3000DC01ED91FC910284F385E02D19954C0197
:103B4000990FAA08BB08BA2CA92C982C882480911C
:103B5000D9109091DA10DC01ED91FC910284F3858B
:103B6000E02D1995092E000CAA0BBB0B882A992A67
:103B7000AA2ABB2ABA2CA92C982C88248091D91067
:103B80009091DA10DC01ED91FC910284F385E02D37
:103B90001995092E000CAA0BBB0B6C017D01C828DE
:103BA000D928EA28FB28C701B601FF90EF90DF90E3
:103BB000CF90BF90AF909F908F9008958091EF101D
:103BC0008F3F21F482E591E00E945E0D60E08091DC
:103BD000EC100E9472078F2D0E94080D80E00E9459
:103BE000080D90E0B0E0A0E0CC24D82EE92EFA2E0B
:103BF00080E00E94080DC82AFE2CED2CDC2CCC2481
:103C000080E00E94080DC82A61E08091EC100E94BB
:103C10007207C9CF8F929F92AF92BF92CF92DF92DD
:103C2000EF92FF928AEF55DF6115710520E8820758
:103C3000910509F485C08090F4109090F510B12C96
:103C4000A12CC72ED82EE92EFF24E7FCFA94C81821
:103C5000D908EA08FB0837E0959587957795679529
:103C60003A95D1F7880C991CAA1CBB1C9B01AC018E
:103C7000281939094A095B09A091F610B091F7108B
:103C80000E9486664B015C015BE0B594A794979413
:103C900087945A95D1F7A7019601C701B6010E94F2
:103CA00015689B01AC016CE05595479537952795B4
:103CB0006A95D1F7A091F810B091F9100E9486662C
:103CC0009B01AC017EE055954795379527957A95F0
:103CD000D1F7280D391D4A1D5B1D8091F010909180
:103CE000F110A091F210B091F310280F391F4A1F64
:103CF0005B1F2093E8103093E9104093EA10509333
:103D0000EB10A5E0B0E00E947C6660587F4F8F4FBB
:103D10009F4F672F782F892F992787FD9A950E94AB
:103D2000346520E030E048EC52E40E942267FF90C6
:103D3000EF90DF90CF90BF90AF909F908F900895BD
:103D400060E070E080EC9FE7F2CFCF93DF93C82F65
:103D50008091EC108F3F09F03DC08091E3100E94EC
:103D6000B2028091D9109091DA10DC01ED91FC91B2
:103D70000190F081E02D6C2F19958091D9109091D0
:103D8000DA1014DC42E06091E3108091D910909138
:103D9000DA1097DE8091D9109091DA10DC01ED9164
:103DA000FC910284F385E02D1995C82F8091D910DC
:103DB0009091DA10DC01ED91FC910284F385E02D05
:103DC000199520E03C2FE901C82BD92BCE01DF91BA
:103DD000CF9108958091EF108F3F21F482E591E01B
:103DE0000E945E0D60E08091EC100E9472078C2FA3
:103DF0000E94080D80E00E94080DC82F80E00E94FC
:103E0000080DDC2FC82F61E08091EC100E94720732
:103E1000DDCF9BDF9827892798270895CF93C82F58
:103E20008091EC108F3F61F58091E3100E94B20207
:103E30008091D9109091DA10DC01ED91FC91019004
:103E4000F081E02D6C2F19958091D9109091DA10A6
:103E5000ADDB41E06091E3108091D9109091DA10D0
:103E600030DE8091D9109091DA10DC01ED91FC9157
:103E70000284F385E02D1995C82F8C2FCF910895DA
:103E80008091EF108F3F21F482E591E00E945E0D5A
:103E900060E08091EC100E9472078C2F0E94080D48
:103EA00080E00E94080DC82F61E08091EC100E9414
:103EB0007207E3CFCF93DF938091EC108F3F09F02F
:103EC000F2C006DA80EDAADF90E0B0E0A0E08093D7
:103ED000E4109093E510A093E610B093E7108036BD
:103EE0009105A105B10509F0FBC066EB80EE44DC4D
:103EF0006AE070E080E090E00E945C0C83EF8EDF6F
:103F000080FDF6CF88E885DF9093F5108093F4105C
:103F10008AE87FDF9093F7108093F6108CE879DFC2
:103F20009093F9108093F8108EE873DF9093FB1054
:103F30008093FA1080E96DDF9093FD108093FC1060
:103F400082E967DF9093FF108093FE1084E961DFC0
:103F5000909301118093001186E95BDF9093031128
:103F60008093021188E955DF909305118093041125
:103F70008AE94FDF90930711809306118CE949DF9E
:103F800090930911809308118EE943DF90930B11F0
:103F900080930A1181EA42DF80930C1181EE39DFB0
:103FA00090930E1180930D1183EE38DF80930F11E3
:103FB00084EE34DFC82F85EE31DF90E1C902900135
:103FC00011248F70282B309311112093101186EE3D
:103FD00025DFC82F85EE22DF90E1C902E001112420
:103FE00090E024E0959587952A95E1F78C2B9D2B01
:103FF000909313118093121187EE10DF80931411A8
:104000008DEE80931611809117118F71806A8093C5
:10401000171180911511807C8093151160E084EF59
:10402000ABDB6091171162956695677082EFA4DB38
:1040300080911511682F677090E2699FB00111247B
:10404000282F269526952695277094E0299F900184
:104050001124622B87FB882780F9682B85EF8CDB86
:1040600080911611682F677090E2699FB00111244A
:10407000282F269526952695277094E0299F900154
:104080001124622B8295869586958370682B84EF28
:1040900073DB64E670E080E090E00E945C0C81E0FD
:1040A000DF91CF91089561E00E94720761E08091F5
:1040B000EC100E9434088091EF108F3F19F40E9499
:1040C000C40C00CF61E00E94340861E08091ED10E3
:1040D0000E94340860E08091EE100E943408F2CE15
:1040E00080E0DECF88E60E94B2026FE085E09FE0CC
:1040F0002FDA85E09FE05ADA41E068E685E09FE04C
:10410000E0DC0C947B0308951F93CF93DF93EC01C5
:1041100088E60E94B20260E085E09FE019DA2D8116
:104120001AE0822F612F0E942468682F660F680FA3
:10413000660F620F85E09FE00BDA2C81822F612FE2
:104140000E942468682F660F680F660F620F85E073
:104150009FE0FED92B81822F612F0E942468682F57
:10416000660F680F660F620F85E09FE0F1D98881C6
:104170004A81698190E00E94980C069667E070E0A1
:104180000E943068682F811101C067E085E09FE0E0
:10419000DFD92A811AE0822F612F0E942468682FBC
:1041A000660F680F660F620F85E09FE0D1D9298105
:1041B000822F612F0E942468682F660F680F660F98
:1041C000620F85E09FE0C4D92881822F612F0E9471
:1041D0002468682F660F680F660F620F85E09FE006
:1041E000B7D985E09FE0E2D97DDFC82F88E60E943D
:1041F000B2026FE085E09FE0ABD96C2F6F7785E06E
:104200009FE0A6D985E09FE0DF91CF911F91CEC9B5
:104210000F931F93CF938C01C62FF4DA6C2F646039
:10422000C801F0DA6C2F6B7FC801ECDA83EC90E008
:104230000197F1F7CF911F910F9108950F931F935D
:10424000CF93DF938C01D62FC42F607F642BE0DFE8
:1042500080E1D89FB00111246C2BC801DF91CF9170
:104260001F910F91D5CFCF93DF9300D000D01F9235
:104270001F92CDB7DEB798E0E5EDF2E0DE011196D2
:1042800001900D929A95E1F79091D510961710F440
:104290006FEF690F262F30E0220F331F41E050E00F
:1042A0004C0F5D1F240F351FF9016081680F606896
:1042B00040E08DEC90E128960FB6F894DEBF0FBE7B
:1042C000CDBFDF91CF91BACF40E061E08DEC90E1BE
:1042D000B5DF8BE39FE10197F1F7089541E0AEDF91
:1042E00081E090E008950F931F93CF93DF938B01AC
:1042F00098E0899FB0011124606440E08DEC90E16A
:104300009DDFE801085F1F4F69918DEC90E1E6DFCA
:10431000C017D107C9F7DF91CF911F910F91089571
:10432000CF92DF92EF92FF920F931F93CF93DF9381
:10433000EC0160E08E810E94720760E08A810E9439
:1043400072078E012A853B85C8018C1B9D0B821745
:104350009307E4F4F801E484DA80C88088E0F82E5A
:104360006E2D661F6627661F8C2D0E947207EE0C4D
:1043700061E08D2D0E94720760E08D2D0E94720712
:10438000FA94F110EDCF0F5F1F4FDCCF61E08E810B
:10439000DF91CF911F910F91FF90EF90DF90CF9021
:1043A0000C947207CF93DF93FC01C681D78184817F
:1043B0009581209729F461E0DF91CF910C947207E9
:1043C000FC0197FD379623E0F595E7952A95E1F7EF
:1043D00068E070E00E944468282F81E090E0A0E04F
:1043E000B0E004C0880F991FAA1FBB1F2A95D2F7FF
:1043F000EC0FFD1F2485822B9CAD8487992319F037
:10440000DF91CF910895CE01DF91CF9189CFDC016B
:104410001696ED91FC91179714968D919C9130977B
:1044200019F460E00C9472079C0197FF02C0295FA9
:104430003F4F43E0359527954A95E1F768E070E0F6
:104440000E944468482F81E090E0A0E0B0E004C002
:10445000880F991FAA1FBB1F4A95D2F78095DF01CD
:10446000A20FB31F1C969C911C97892394AD1C9698
:104470008C9391110895CF0153CFCF93DF93FC011B
:1044800020813181225031092330310590F4EC0133
:10449000BEDF1BAE1AAEFE01E05CFF4F10828881CA
:1044A00099819B838A83198218821CAE1DAE1EAE31
:1044B0001FAEDF91CF910895CF93DF93EC018881F8
:1044C0009981029710F0CE01D8DFCE016BDF81E039
:1044D00090E099838883DF91CF910895CF93DF9304
:1044E000EC0195DF888199819B838A8319821882E8
:1044F000DF91CF910895CF92DF92EF92FF920F93C9
:104500001F93CF93DF93EC018881998182309105CD
:1045100009F054C00E948C0C6B017C018CAD9DADE8
:10452000AEADBFAD0097A105B105A1F4FE01E05C01
:10453000FF4F81E08083CE0135DFCCAEDDAEEEAE45
:10454000FFAEDF91CF911F910F91FF90EF90DF9021
:10455000CF900895B701A601481B590B6A0B7B0B3E
:104560008AAD9BAD880F991FEEA9FFA9E80FF91F2F
:1045700080819181092E000CAA0BBB0B8417950733
:10458000A607B707F0F6FE01E05CFF4F808191E0DF
:1045900089278083882379F0CE0104DF8AAD9BAD23
:1045A00001969BAF8AAF28AD39AD821793072CF2E5
:1045B0001BAE1AAEC2CFCE012ADFF0CF83309105F9
:1045C00009F047C00E948C0C0CAD1DAD2EAD3FAD67
:1045D0006B017C01C01AD10AE20AF30A9701860135
:1045E000FE01EF5BFF4F408151816A01F12CE12C0C
:1045F000C016D106E206F30608F0A3CF6CAF7DAF7C
:104600008EAF9FAF329680819181DE01AB5BBF4F51
:104610006D917C911197680F791F11967C936E9321
:104620001616170634F412962D913C9162177307F3
:104630002CF0919581959109918380838C81DF91F4
:10464000CF911F910F91FF90EF90DF90CF900C943E
:10465000620B049709F075CF0E948C0C0CAD1DAD58
:104660002EAD3FAD6B017C01C01AD10AE20AF30AFC
:10467000FE01EF5BFF4F0081118130E020E00C155F
:104680001D052E053F0508F05CCF6CAF7DAF8EAFEA
:104690009FAF349620813181DE01AD5BBF4F4D91DC
:1046A0005C911197241B350B3183208337FF0DC09C
:1046B00014962D913C91318320836C507E4F8F4F07
:1046C0009F4F6CAF7DAF8EAF9FAF60817181B6CFD2
:1046D000CF93DF93EC019BDE1BAE1AAEFE01E05CD4
:1046E000FF4F1082198218821CAE1DAE1EAE1FAE87
:1046F000DF91CF910895EF92FF920F931F93CF9385
:10470000DF93EC017B018A01888199818D7F892B60
:1047100011F0CE01E3DE19AF08AFC801880F991F71
:104720000E94455F8EAB9FABD701FC0190E080E01B
:104730002D913D9121933193019608171907C1F7E7
:104740001BAE1AAE82E090E0998388831CAE1DAE4A
:104750001EAE1FAEDF91CF911F910F91FF90EF9092
:1047600008950F931F93CF93DF93FC01048115816C
:104770000115110539F4FB011082DF91CF911F91D2
:104780000F910895415051094017510708F48A01CB
:10479000EB01FC0160817181A801CE010E94EB6AEE
:1047A000C00FD11F1882E9CF8091ED0B8F938091BC
:1047B000EC0B8F938091EB0B8F938091EA0B8F938F
:1047C0008091E80B9091E90B64E670E00E944468E8
:1047D0009F938F938091E70B8F938091E60B8F933C
:1047E00085E593E09F938F938EE892E09F938F935C
:1047F0000E94FA6A8DB79EB70C960FB6F8949EBFCA
:104800000FBE8DBF0895CF93DF93EC01888199810E
:10481000009711F00E94E15F198218821D821C82AC
:104820001B821A82DF91CF910895FC0180819181D2
:10483000009711F00C94E15F0895FB0101900020B6
:10484000E9F73197AF01461B570BDC01ED91FC9165
:104850000280F381E02D1994CF93DF93BC018BE1AB
:104860009EE00E948B05EC016AE673E08BE19EE01E
:10487000E4DF8C0F9D1FDF91CF9108958F929F925F
:10488000AF92BF92EF92FF920F931F93CF93DF935C
:10489000CDB7DEB7A1970FB6F894DEBF0FBECDBF80
:1048A0007C01FA01CB0119A2223008F42AE08E0122
:1048B0000F5D1F4F822E912CB12CA12CBF01A501A1
:1048C00094010E948C66F901CA016A3004F5605DAA
:1048D000D8016E938D01232B242B252B79F790E0A3
:1048E00080E0109719F0BD01C701A7DFA1960FB6B0
:1048F000F894DEBF0FBECDBFDF91CF911F910F9116
:10490000FF90EF90BF90AF909F908F900895695C5B
:10491000DFCFCF92DF92EF92FF920F931F93CF934F
:10492000DF936B01770FEE08FF08F7FE1AC0EC016A
:104930006DE20E9476058C0144275527BA014C1977
:104940005D096E097F092AE0CE0198DF800F911F73
:10495000DF91CF911F910F91FF90EF90DF90CF905B
:1049600008952AE0B701A601DF91CF911F910F9121
:10497000FF90EF90DF90CF9081CF2F923F924F9298
:104980005F926F927F928F929F92AF92BF92CF92DF
:10499000DF92EF92FF921F93CF93DF93EC016A01B6
:1049A0007B01722EAB019601CB01B6010E9411680A
:1049B0006DE673E0811126C046015701E894B7F80F
:1049C0002FEF3FEF4FE75FE7C501B4010E94116889
:1049D00081110CC02FEF3FEF4FE75FE7C501B40136
:1049E0000E942E6561E773E0181664F02FEF3FEF29
:1049F0004FE75FE4C701B6010E940D681816ACF4DA
:104A000068E973E0CE01DF91CF911F91FF90EF90A5
:104A1000DF90CF90BF90AF909F908F907F906F90DE
:104A20005F904F903F902F9008CF2FEF3FEF4FE7D1
:104A30005FECC701B6010E942E6587FDE1CF20E043
:104A400030E0A901C701B6010E942E65312C212C4E
:104A500087FF09C06DE2CE010E9476051C01F7FABE
:104A6000F094F7F8F09410E060E070E080E09FE3ED
:104A7000711641F020E030E040E251E40E942267EC
:104A80001F5FF6CFA70196010E94BE662B013C0175
:104A90000E948F674B015C012AE0BC01A401CE019A
:104AA000EDDE7C01E20CF31C1123B9F1C501B40168
:104AB0000E9432659B01AC01C301B2010E94BD6638
:104AC0004B015C016EE2CE010E947605E80EF91EF4
:104AD000115018F120E030E040E251E4C501B4018A
:104AE0000E9493652B013C010E948F674B01B12C02
:104AF000A12C2AE0B501A401CE01C0DEE80EF91E0A
:104B0000C501B4010E9432659B01AC01C301B20131
:104B10000E94BD664B015C01DBCFC701DF91CF91E5
:104B20001F91FF90EF90DF90CF90BF90AF909F903C
:104B30008F907F906F905F904F903F902F9008954F
:104B40000F931F93CF93DF938C01D0E0C0E06115EA
:104B5000710511F072DEEC016AE673E0C8016DDEEA
:104B60008C0F9D1FDF91CF911F910F910895CF92D0
:104B7000DF92EF92FF921F93CF93DF938091EB0E22
:104B8000882321F086EE9EE00E9470151092C70ED9
:104B90001092C50E1092C20E1092C10E84E0809346
:104BA000C00E0E948C0CEB0161E08091C00E0E944F
:104BB000340861E08091C00E0E9472070E94C40C0C
:104BC00082E58093BA0E1092BB0E8091BA0E90913E
:104BD000BB0E0E945E0D1AE08FEF0E94010D115076
:104BE000D9F78CEB9EE00E94470E20E030E0A9014F
:104BF00060E08CEB9EE00E945B0E182F8093C60E47
:104C0000813011F10E948C0C6C1B7D0B613D774053
:104C100060F381E08093C10E8CEB9EE00E94F70C64
:104C200065E773E08BE19EE08BDF109219028BE366
:104C300090E10E941A1CDF91CF911F91FF90EF909D
:104C4000DF90CF900C946B1C2AEA31E040E050E0FA
:104C500068E08CEB9EE00E945B0E82FF2AC01093FE
:104C6000C70E8091C70EC12CD12C7601823029F459
:104C7000C12CD12CE12C80E4F82E20E030E0A901F9
:104C800067E38CEB9EE00E945B0EA701960169E250
:104C90008CEB9EE00E945B0E8093C60E8823C1F0D1
:104CA0000E948C0C6C1B7D0B613D774030F388E0DB
:104CB000B1CF14E00E94440D8093C60E1150D1F77D
:104CC0008A3A11F082E0A6CF82E08093C70EC9CF66
:104CD0008091C70E8230D1F420E030E0A9016AE370
:104CE0008CEB9EE00E945B0E882311F086E092CF51
:104CF0000E94440D807C803C19F483E08093C70EB1
:104D00000E94440D0E94440D0E94440D8CEB9EE0D5
:104D10000E94F70C80E58093BA0E1092BB0E81E0E2
:104D20000E943E10882391F086EE9EE00E94F012D1
:104D3000882309F475CF81E080931902DF91CF9128
:104D40001F91FF90EF90DF90CF90089580E00E9438
:104D50003E10882309F464CFE7CF0F931F93CF93BE
:104D6000DF93EC010E947D058C016AE673E0CE01C1
:104D700064DD800F911FDF91CF911F910F910895F6
:104D8000CF93DF93EC01A0DA60E080E06CDABE0143
:104D90008DEC90E10E947D05BE018BE19EE0DDDFA0
:104DA00062E370E080E090E0DF91CF910C945C0CC6
:104DB00044CDCF93DF9361E080E055DAC1E1D0E0EC
:104DC00061E677E08DEC90E1F3DF2197C9F7DF91A1
:104DD000CF9108950F931F93CF93DF932091C30931
:104DE0002223A1F0EB018C0165E873E08BE19EE0EA
:104DF000DFDFB8018BE19EE00E947D05BE018BE103
:104E00009EE0DF91CF911F910F91A7CFDF91CF91BE
:104E10001F910F910895FC0180819181009711F0FD
:104E20000C946A6060E070E0CB010895FC01808121
:104E30009181009711F00C948A6060E070E0CB01E2
:104E400008952F923F924F925F926F927F928F922E
:104E50009F92AF92BF92CF92DF92EF92FF920F9309
:104E60001F93CF93DF93D82FC92F8B010E948A60A5
:104E700024E630E040E050E00E948C6649019B014E
:104E8000AC0160E876E988E990E00E9415686B0162
:104E90007C01F80191828082ED2FFC2F2191822FDD
:104EA000022E000C990BC0970A97C0F32E3239F5E9
:104EB0001F0180E8882E86E9982E88E9A82EB12C5B
:104EC0009AE0492E512C612C712CF101C1911F01E6
:104ED0000C2E000CDD0BE097CA30D10580F4C50123
:104EE000B401A30192010E948C6649015A01DE01BE
:104EF0000E948666C60ED71EE81EF91EE6CFA5E004
:104F0000B0E0A70196010E947C666F5F7F4F8F4FD4
:104F10009F4F23E030E040E050E00E948C66F801B3
:104F200022833383448355831682DF91CF911F916F
:104F30000F91FF90EF90DF90CF90BF90AF909F9038
:104F40008F907F906F905F904F903F902F9008953B
:104F50001F93CF93DF93EC0118811D3209F4219642
:104F6000CE010E948A609B01AC01A4E6B0E00E94E1
:104F70007C66AB01BC01FE012991822F022E000C40
:104F8000990BC0970A97B8F32E3231F58181082E1C
:104F9000000C990BC0978A309105F0F4AAE0A89F05
:104FA0009001A99F300D1124C901330FAA0BBB0B2F
:104FB000480F591F6A1F7B1F8281082E000C990B16
:104FC000C0978A30910540F4092E000CAA0BBB0B48
:104FD000480F591F6A1F7B1F1D3239F47095609569
:104FE000509541955F4F6F4F7F4FCB01BA01DF91D5
:104FF000CF911F9108950F931F93CF93DF938C014F
:10500000EB01FC01808191810097E1F06881798159
:1050100061157105A9F0428153812C813D814217B0
:10502000530770F00E94E46A8C819D81F80195839A
:1050300084831D821C82DF91CF911F910F9108956F
:105040000E94E15F88819981F801918380838A8140
:105050009B81938382838C819D8195838483198234
:1050600018821B821A82E5CF0F931F93CF93DF9391
:10507000EC0188819981009759F02A813B8126179C
:10508000370730F081E0DF91CF911F910F910895A4
:105090008B016F5F7F4F0E94D369009759F099830E
:1050A00088831B830A832C813D81232B59F7FC01C4
:1050B0001082E8CF80E0E7CFEF92FF920F931F932B
:1050C000CF93DF936115710541F480E0DF91CF91BB
:1050D0001F910F91FF90EF90089541155105A9F090
:1050E0007B01EC010C811D81040F151FB801BCDF91
:1050F000882359F3288139818C819D81B701820FE2
:10510000931F0E94E46A1D830C8381E0DFCFCF935D
:10511000DF93EC01FB0101900020E9F73197AF012B
:10512000461B570BC9DF811102C0CE016CDBCE01DB
:10513000DF91CF910895CF93DF93EC01FB01448180
:10514000558160817181B8DF811102C0CE015BDBC6
:10515000CE01DF91CF910895EF92FF920F931F93AD
:10516000CF93DF93CDB7DEB764970FB6F894DEBF69
:105170000FBECDBF7C01CB01BA018E010F5F1F4F67
:1051800022E044E00E94285FFC0101900020E9F742
:105190003197AF01481B590BBC01C7018DDF6496E5
:1051A0000FB6F894DEBF0FBECDBFDF91CF911F9138
:1051B0000F91FF90EF900895EF92FF920F931F933E
:1051C000CF93DF9300D000D01F921F92CDB7DEB7F0
:1051D0007C01CB014AE08E010F5F1F4FB8010E9496
:1051E000EA60F80101900020E9F73197AF01401B18
:1051F000510BB801C70160DF28960FB6F894DEBFE7
:105200000FBECDBFDF91CF911F910F91FF90EF9017
:105210000895CF93DF931F921F92CDB7DEB76983B6
:105220001A8241E050E0BE016F5F7F4F45DF0F9073
:105230000F90DF91CF910895CF93DF93D1E08BE171
:105240009EE00E942606892B71F08BE19EE00E9471
:105250000406C82F682F81E19FE0DBDFCD3079F7AE
:10526000D093B409ECCFDF91CF9108950E944D0601
:105270008111E2DF80E090E0892B29F00E94440652
:1052800081110E94000080E090E0892B29F00E94AB
:105290003B0681110E94000080E090E0892B29F0FC
:1052A0000E94320681110C9400000895FB010190C8
:1052B0000020E9F73197AF01461B570BFDCEFB01EC
:1052C0004481558160817181F7CEEF92FF920F93F7
:1052D0001F93CF93DF93EC017B018A01BA01C4DEF7
:1052E00081110AC0CE018FDACE01DF91CF911F91DB
:1052F0000F91FF90EF9008951D830C83B701888173
:1053000099810E94E46AF0CFFB0101900020E9F747
:105310003197AF01461B570BD8CF0F931F93CF93F5
:10532000DF93CDB7DEB762970FB6F894DEBF0FBE3E
:10533000CDBF8C01CB01F801118210821382128241
:10534000158214824AE0BE016F5F7F4F0E94EA60BF
:10535000BE016F5F7F4FC801D7DF62960FB6F8942A
:10536000DEBF0FBECDBFDF91CF911F910F9108958A
:105370000F931F93CF93DF9300D000D000D0CDB711
:10538000DEB78C01862FF8011182108213821282FF
:105390001582148240E1BE016F5F7F4F90E00E9452
:1053A0004061BE016F5F7F4FC801AEDF29960FB627
:1053B000F894DEBF0FBECDBFDF91CF911F910F914B
:1053C00008950F931F93CF93DF93CDB7DEB7A297C6
:1053D0000FB6F894DEBF0FBECDBF8C01CB01BA0172
:1053E000F8011182108213821282158214822AE03F
:1053F000AE014F5F5F4F0E94F460BE016F5F7F4F51
:10540000C80182DFA2960FB6F894DEBF0FBECDBFF3
:10541000DF91CF911F910F910895EF92FF920F931B
:105420001F93CF93DF93CDB7DEB7A1970FB6F89454
:10543000DEBF0FBECDBF7C01CB01BA01F7011182E7
:105440001082138212821582148242E0420F8E0172
:105450000F5F1F4F0E94285F009781F0BC01C701BA
:1054600053DFA1960FB6F894DEBF0FBECDBFDF911C
:10547000CF911F910F91FF90EF900895C701C3D96D
:10548000F0CFCF93DF93EC01FB018617970741F034
:10549000608171816115710539F04481558115DF95
:1054A000CE01DF91CF910895AED9FACFFC011182E0
:1054B00010821382128215821482E3CFFC011182C2
:1054C000108213821282158214826115710549F0CF
:1054D000FB0101900020E9F73197AF01461B570B04
:1054E000F4CE08952F923F924F925F926F927F92E7
:1054F0008F929F92AF92BF92CF92DF92EF92FF92E4
:105500000F931F93CF93DF93CDB7DEB72F970FB6CF
:10551000F894DEBF0FBECDBF6C017B01FB010081A3
:105520008FE70E94B2025701F3E0AF0EB11C10E00A
:10553000EA14FB0461F0F70161917F0185E09FE0CF
:105540000E94A81AF70131978081180FF1CF612FBF
:1055500085E09FE00E94A81A85E09FE00E94D61A8D
:1055600068E873E081113CC00F700E5F64E170E089
:1055700080E090E00E945C0C402F6FE785E09FE0A8
:105580000E94611D10E0C8010E94455F7C010E94DD
:105590008C0C2B013C018091C309882329F06FE812
:1055A00073E08BE19EE004DC57019CE9292E93E037
:1055B000392ECE0101964C019091F20B8091F30BA4
:1055C000981709F444C00E947B0395012E193F09E6
:1055D000201731070CF1C7010E94E15F67E973E012
:1055E000C6016CDFC6012F960FB6F894DEBF0FBE62
:1055F000CDBFDF91CF911F910F91FF90EF90DF9082
:10560000CF90BF90AF909F908F907F906F905F9062
:105610004F903F902F900895F50181935F01209165
:10562000C309222349F299279F938F933F922F9288
:105630009F928F920E94FA6AB4018BE19EE0B8DBE0
:105640000F900F900F900F900F900F90B5CF80910B
:10565000C309882329F06AE673E08BE19EE0EDD868
:105660000E948C0C641975098609970969377105C0
:105670008105910530F0C7010E94E15F64EA73E0A3
:10568000AFCFF70180E0580191E0A91AB1089F015E
:105690002E193F092A153B051CF49191890FF7CF6C
:1056A0000E0D1F1DF80131979081891731F0C70148
:1056B0000E94E15F69EA73E093CF63EA73E0CE0191
:1056C0000796FCDE4701EFEF8E1A9E0A8EEA682EDF
:1056D00083E0782E8E01035F1F4FC4018E199F094E
:1056E0008A159B05FCF4F40181914F011F928F9361
:1056F0007F926F921F930F930E94FA6AB801CE01B6
:105700000196DCDEBE016F5F7F4FCE010796D7DDCD
:10571000CE0101968AD80F900F900F900F900F90A6
:105720000F90DBCFC7010E94E15FF601118210826A
:105730001382128215821482BE01695F7F4FC601F7
:105740005ADCCE01079671D84DCFCF92DF92EF92FF
:10575000FF920F931F93CF93DF93CDB7DEB72C97B4
:105760000FB6F894DEBF0FBECDBF03E010E00E947D
:10577000CD0D6B017C018FE00E94950D809328096F
:10578000682FCE010796F4DD63EB73E0CE0101963E
:1057900095DEBE01695F7F4FCE0101961BDBCE0116
:1057A000019643D8CE01079640D8809128098823D6
:1057B00071F16AE070E080E090E00E945C0C0150C2
:1057C0001109A9F66CEB73E08BE19EE0B9D9109159
:1057D000280961E672E0112311F068E072E085E0CB
:1057E0000E94732182EF9FE0112331F10E941A1C65
:1057F0002C960FB6F894DEBF0FBECDBFDF91CF91D0
:105800001F910F91FF90EF90DF90CF900895A70127
:1058100096016091290970912A0980912B09909134
:105820002C090E94BE66609310027093110280934F
:10583000120290931302CBCF0E943D22D9CFAF9298
:10584000BF92CF92DF92EF92FF920F931F93CF936D
:10585000DF937C016B01EA018AECA82E83E0B82E6D
:10586000842F805D8093CB03CA0101960E94455F1F
:105870008C0181EFC81688EDD806D1F4F801C00F6D
:10588000D11F8DE28193EC17FD07E1F7B801C70145
:1058900015DEC8010E94E15FC701DF91CF911F9122
:1058A0000F91FF90EF90DF90CF90BF90AF90089551
:1058B000DF92CF92BF92AF921F930F930E94FA6A2A
:1058C0000F900F900F900F900F900F90DFCF4F928F
:1058D0005F926F927F92AF92BF92CF92DF92EF92E0
:1058E000FF920F931F93CF93DF936C012A013B012B
:1058F000580189010A0D1B1D780182E0E80EF11C98
:10590000C7010E94455FEC01A3019201C301B201EE
:105910000E94116881111EC04FEF4E0D8E012A2D7D
:10592000C301B2010E94285FBE01C601C7DDCE01DE
:105930000E94E15FC601DF91CF911F910F91FF900F
:10594000EF90DF90CF90BF90AF907F906F905F907F
:105950004F900895FE012DE22193CF018C1B9D0BEA
:1059600008171907CCF7E0CF2F923F924F925F9222
:105970006F927F928F929F92AF92BF92CF92DF925F
:10598000EF92FF920F931F93CF93DF93CDB7DEB7C4
:10599000A0970FB6F894DEBF0FBECDBF8C0168A3F1
:1059A0008091B9118823D9F18091C7118823B9F169
:1059B0001092BA114090BB115090BC116090BD1173
:1059C0007090BE1194E6C92ED12CE12CF12CC301AC
:1059D000B201A70196010E948C66862E262E372ED4
:1059E0002114310409F038C068EF73E0CE0143960A
:1059F00065DD6EED73E0CE01019660DDBE016D5E8A
:105A00007F4FCE010196E6D9CE0101960E94152462
:105A1000CE0143960E94152464E074E01AC06EEC37
:105A200073E0CE0143964ADD6EED73E0CE01019640
:105A300045DDBE016D5E7F4FCE010196CBD9CE0113
:105A400001960E941524CE0143960E9415246DEE06
:105A500073E0C80133DD33C1CA01B901A701960162
:105A60000E948C66B62EC301B20120E137E240E00D
:105A700050E00E948C66922E1092C8114090C9117D
:105A80005090CA116090CB117090CC11C301B2013B
:105A900020E432E44FE050E00E948C66A22EC30165
:105AA000B20120E137E240E050E00E948C66CA017A
:105AB000B901A70196010E948C666F8FC301B201E4
:105AC000A70196010E948C66CA01B901A70196013F
:105AD0000E948C66462F892D8A218B21CF8C8C21A8
