:100000000C9442030C9473030C9473030C947303C9
:100010000C9473030C9473030C9473030C94730388
:100020000C9473030C947B4F0C947B4F0C947B4F7C
:100030000C94714F0C94384D0C9473030C9473030F
:100040000C9473030C9473030C9473030C94730358
:100050000C9473030C9473030C9473030C94274F48
:100060000C9473030C94FD4E0C94D34E0C947303B8
:100070000C9473030C9473030C9473030C94730328
:100080000C9473030C9473030C9473030C94730318
:100090000C94A94E0C947F4E0C9473030C94854FD2
:1000A0000C9473030C9473030C9473030C947303F8
:1000B0000C9473030C9473030C9473030C947303E8
:1000C0000C9473030C9473030C9473030C94554EAB
:1000D0000C942B4E0C9473030C94014E0C94D74D3E
:1000E0000C9473030C947F280C94D15A0C94995A55
:1000F0000C940A0D0C940D080C94B50C0C949C5A9D
:100100000C94EC070C94E8070C94545D0C94AB0C25
:100110000C94CD5C0C94FA070C94925A0C94F6074C
:100120000C94A7180C9442070C94780C0C943C4C3B
:100130000C9412080C94AC1B0C948F070C94700C4C
:100140000C94FD180C948B5A0C94870C0C940D5D38
:100150000C94A35A0C94A14B0C94D0180C94DF0768
:100160000C941A060C9400080C94BC1B0C94BD5AF9
:100170000C945D1D0C94000D0C945C620C94BF0CEF
:100180000C94D74B0C94354D0C94F85C0C94565A47
:100190000C94CA5A0C940E080C94C64B0C94EC06A2
:1001A0000C945B4C0C94E91B0C94F0220C947E4C48
:1001B0000C9408080C94624C0C9475060C944F0433
:1001C0000C943B060C94D7070C94910C0C940C5196
:1001D0000C94D80C0C9450040C94E2070C949B0CD7
:1001E0000C94DB070C94855A0C94AD1B0C94EB5AC1
:1001F0000C94BA4C0C9404080C94B05A0C94DE5A2B
:100200000C94A30C0C9446180C94CA060C94E01899
:100210000C94C90C0C949F6C0C942A5D0C943C1AA1
:100220000C94BB4B0C94124D0C94D3070C94B01847
:100230000C94321A0C944A5A0C9440160C94F60CF6
:100240000C94BB060C94EC0C0C94CD070C947D0C18
:100250000C943F5D0C94E20C0C94DE5C0C94DE0676
:100260000C9429040C94F2074E414E494E495459BE
:10027000494E46CDCCCC3D0AD7233C17B7D1387771
:10028000CC2B329595E6241FB14F0A000020410087
:1002900000C84200401C4620BCBE4CCA1B0E5AAED1
:1002A000C59D7400407A10F35A00A0724E180900E0
:1002B00010A5D4E80000E87648170000E40B5402CB
:1002C0000000CA9A3B000000E1F505000080969806
:1002D00000000040420F000000A086010000001056
:1002E0002700000000E80300000000640000000098
:1002F000000A00000000000100000000002C76D879
:1003000088DC674F0823DFC1DFAE59E1B1B796E55E
:10031000E3E453C63AE651997696E8E6C28426EBC2
:10032000898C9B62ED407C6FFCEFBC9C9F40F2BAD5
:10033000A56FA5F490055A2AF75C936B6CF9676D6D
:10034000C11BFCE0E40D47FEF520E6B500D0ED90C2
:100350002E0300943577050080841E080000204E8F
:100360000A000000C80C333333330F986E12831128
:1003700041EF8D2114893BE65516CFFEE6DB18D1FF
:10038000844B381BF77C1D901DA4BBE424203284D1
:10039000725E228100C9F124ECA1E53D2763646906
:1003A0006E6F70737578585B00556E61626C652076
:1003B000546F20416363657373205344204361721B
:1003C00064007C3C3E5E2B3D3F2F5B5D3B2C2A2234
:1003D0005C001F1C1F1E1F1E1F1F1E1F1E00002152
:1003E00000240027002A002D003000330001010006
:1003F00000040107010A0100002000230026002953
:10040000002C002F0032000001000003010601094A
:100410000100000A0B02090C0D0E0807030401007D
:1004200000000000000000000000000000000000CC
:100430000000000000000000000000000012111089
:1004400000000000000000000000000000000000AC
:100450000000000000000021212152544320544993
:100460004D45204552524F572121212E2E2E2E2010
:10047000436F6E6E65637420746F20504320746FF9
:1004800020526573657400525443204E6F742046A9
:100490006F756E64005761746368646F6720616391
:1004A000746976617465004C43442773204C45445D
:1004B0002077696C6C205455524E204F464620617F
:1004C0006674657220626F6F74696E6700504F5773
:1004D000455220534156494E47204F4E00576172B6
:1004E000696E672120506F77657220536176696E5F
:1004F00067204F4E2C204C43442773204C4544200A
:1005000077696C6C2073687574646F776E206166B0
:1005100074657220626F6F74696E6721004F706539
:100520006E2070756D70004465766963652049447E
:10053000203D20004461746120436F6C6C656374DE
:10054000696E6720537973740042696F6368656DE3
:1005500069737472792020202042756F79005344AA
:10056000206F7220525443206572726F72005344A0
:1005700020616E64205254432050617373005344D1
:1005800020436865636B696E67005254432043687B
:1005900065636B696E670047657420454550524F2F
:1005A0004D20646174610044697361626C65207000
:1005B00061727469616C204750532044617461001A
:1005C00053656E736F722041637469766174650060
:1005D0004C45442054657374000102102020080823
:1005E0001020401020408002010201080402010195
:1005F000020408102040808040201008040201807E
:1006000004020180402010080402010804020101D4
:1006100002040810204080010204081020408000DD
:10062000002200250028002B002E0031003400029B
:10063000010000050108010B010505050507050876
:10064000080808020202020A0A0808040404040155
:100650000101010101010103030303030303030477
:100660000707070C0C0C0C0C0C0C0C020202020607
:10067000060606060606060B0B0B0B0B0B0B0B02F6
:100680000C515C6211241FBECFEFD1E2DEBFCDBFA3
:1006900000E00CBF19E0A0E0B2E0E0E2FAEE00E01A
:1006A0000BBF02C007900D92A431B107D9F723E127
:1006B000A4E1B9E001C01D92AC36B207E1F713E046
:1006C000C1E4D3E000E006C021970109802FFE01BC
:1006D0000E94316CC034D10780E00807A9F70E945E
:1006E00074530C94FE740C94000091E09093760C7B
:1006F0008093750C1092740C1092730C0895CF9324
:10070000DF93EC019A01AB01E889F98982E08083EB
:10071000211581EE38074105510581F160E079E04E
:100720008DE390E00E94496A215031094109510945
:100730005695479537952795EC85FD851082EE8572
:10074000FF852083188EEC89FD8986E08083EA8905
:10075000FB89808180618083EA89FB898081886050
:100760008083EA89FB89808180688083EA89FB89AC
:1007700080818F7D8083DF91CF910895E889F98909
:10078000108220E1D9CFCF93DF93FC018281938146
:1007900090930B1180930A1184819581A681B78172
:1007A00080930C1190930D11A0930E11B0930F1123
:1007B00080859185A285B385809310119093111146
:1007C000A0931211B0931311DF011C96CF0149962B
:1007D000C4E1D1E12D912993A817B907D9F7818DEB
:1007E000928D909322118093211188E091E1DF9105
:1007F000CF91089581E080934712809346128091B3
:100800003E1290913F12A0914012B09141128093FC
:10081000361290933712A0933812B0933912809108
:10082000521290915312019741F410923612109285
:1008300037121092381210923912089582309105B1
:1008400038F0880F991F880F991F05970197F1F7C6
:1008500008959091720C8091710C2FEF3FEF9817D3
:1008600048F4E92FF0E0EF5AF34F208130E09F5F2A
:100870009093720CC90108959091720C8091710C43
:100880002FEF3FEF981748F4E92FF0E0EF5AF34FBE
:10089000208130E09F5F9093720CC9010895089504
:1008A0000895CF92DF92EF92FF920F931F93CF9311
:1008B000DF932091501130915111232B79F08EBD8F
:1008C0000DB407FEFDCFDEB48D2DDF91CF911F91CA
:1008D0000F91FF90EF90DF90CF90089520915811E5
:1008E00030915911C1E0232B09F0C0E8CC24C39406
:1008F000982F9C2309F0C12CD82F209154113091AE
:100900005511409156115091571160E271EA87E0FC
:1009100090E00E94496A122FDD2E00E0E22EF12CB9
:10092000112319F0C7010E941E0480915A11877F7C
:1009300009F054C080915D118F3FA1F09D2F9C2341
:1009400081E009F480E08C1569F0E0915F11F0918D
:100950006011809167119923D9F19081892B80834F
:10096000CC24C394E0916111F09162118081909147
:100970006911892B8083112319F0C7010E941E047D
:1009800080915E118F3F51F0E0916311F0916411FD
:10099000808190916811892309F00C2BE0916111FD
:1009A000F0916211908180916911809589238083F3
:1009B00080915E118F3F09F0D02E80915811909157
:1009C0005911892B09F047C0CC0FC111A9CF7CCF99
:1009D0009081809589238083C12CC4CFE0916111DF
:1009E000F0916211808190916911892B808311238C
:1009F00019F0C7010E941E0480915D118F3F61F0C4
:100A0000E0915F11F0916011809167119D2F9C23FF
:100A1000F1F09081892B8083E0916111F091621156
:100A200090818091691180958923808380915E11E6
:100A30008F3F09F4BDCFE0916311F0916411808183
:100A400090916811892309F4B3CF0C2BB1CF908119
:100A500080958923E0CFC695B8CF20915E13309161
:100A60005F1380915C1390915D132817390799F1FA
:100A7000E0915E13F0915F13EC5AFD4E808520915A
:100A80005E1330915F132F5F3F4F332730935F1317
:100A900020935E13982F40915E1350915F13209125
:100AA0005C1330915D1342175307C1F0E0915E1360
:100AB000F0915F13EC5AFD4E808520915E133091CA
:100AC0005F132F5F3F4F332730935F1320935E13E5
:100AD000282F822F08958FEF9FEFDCCF2FEF3FEF6E
:100AE000F8CF20915C1330915D132F5F3F4F332778
:100AF00040915E1350915F132417350759F0E09130
:100B00005C13F0915D13EC5AFD4E808730935D13BA
:100B100020935C13089580342FE1920714F400971A
:100B2000F9F489E090E09093EC0E8093EB0E80E472
:100B30009FE12091EB0E3091EC0EA901440F551F5F
:100B4000440F551F407227702860242B38E10FB6E0
:100B5000F894A895309360000FBE2093600008952C
:100B6000803A2FE092074CF088E090E09093EC0EF2
:100B70008093EB0E80EA9FE0DCCF803D27E0920778
:100B80004CF087E090E09093EC0E8093EB0E80EDBC
:100B900097E0CFCF883E23E092074CF086E090E0CC
:100BA0009093EC0E8093EB0E88EE93E0C2CF843FDF
:100BB00021E092074CF085E090E09093EC0E80935A
:100BC000EB0E84EF91E0B5CF8A3F91054CF084E0C5
:100BD00090E09093EC0E8093EB0E8AEF90E0A9CF1B
:100BE000883791054CF083E090E09093EC0E809371
:100BF000EB0E88E790E09DCF8C3391054CF082E0BE
:100C000090E09093EC0E8093EB0E8CE390E091CF0C
:100C10004E974CF081E090E09093EC0E8093EB0EB9
:100C20008EE190E086CF1092EC0E1092EB0E8FE0EA
:100C300090E07FCF8091710C9091720C891B990B81
:100C40000895E0914212F0914312309709F01994FF
:100C50000895FC01248135816217730720F4808197
:100C60009181009729F41092F50985EF99E0089594
:100C7000860F971F08950895DC01ED91FC91019076
:100C8000F081E02D1994DB0114964D915C9115973C
:100C90006D917C91DC01ED91FC910280F381E02D5E
:100CA0001994EF92FF920F931F93CF93DF938C01D0
:100CB0007B01D0E0C0E0F701EC0FFD1F64916623DB
:100CC00061F0D801ED91FC910190F081E02DC80117
:100CD0001995892B11F02196EECFCE01DF91CF919E
:100CE0001F910F91FF90EF900895AF92BF92CF9216
:100CF000DF92EF92FF920F931F93CF93DF936C01DC
:100D00007B018B01040F151FEB015E01AE18BF08BC
:100D1000C017D10759F06991D601ED91FC9101906E
:100D2000F081E02DC6011995892B79F7C501DF9176
:100D3000CF911F910F91FF90EF90DF90CF90BF90D8
:100D4000AF900895FC01A089B1898C91A689B789DB
:100D500082FD0FC09C91818D8F5F8F73228D8217D2
:100D600049F0A18DAE0FBF2FB11D5D969C93818F71
:100D700008958C910895FC01538D448D252F30E00A
:100D8000842F90E0821B930B541710F0CF96089598
:100D900001970895FC01918D828D981761F0A28DC5
:100DA000AE0FBF2FB11D5D968C91928D9F5F9F738B
:100DB000928F90E008958FEF9FEF0895FC01918D41
:100DC000828D981731F0828DE80FF11D858D90E0AE
:100DD00008958FEF9FEF0895FC01918D228D892F4B
:100DE00090E0805C9F4F821B91098F739927089533
:100DF00087E79CE00E94EC0621E0892B09F420E0C3
:100E0000822F089584E19DE00E94EC0621E0892B69
:100E100009F420E0822F089581EB9DE00E94EC060A
:100E200021E0892B09F420E0822F08958EE49EE0D2
:100E30000E94EC0621E0892B09F420E0822F08951E
:100E4000FC01A48DA80FB92FB11DA35ABF4F2C913F
:100E5000848D90E001968F739927848FA689B78936
:100E60002C93A089B1898C91837080648C93938D2D
:100E7000848D981306C00288F389E02D80818F7DD0
:100E800080830895EF92FF920F931F93CF93DF9388
:100E9000EC0181E0888F9B8D8C8D98131AC0E889B6
:100EA000F989808185FF15C09FB7F894EE89FF8985
:100EB0006083E889F98980818370806480839FBF23
:100EC00081E090E0DF91CF911F910F91FF90EF9023
:100ED0000895F62E0B8D10E00F5F1F4F0F73112733
:100EE000E02E8C8D8E110CC00FB607FCFACFE8896E
:100EF000F989808185FFF5CFCE010E942007F1CFCF
:100F0000EB8DEC0FFD2FF11DE35AFF4FF0829FB7E1
:100F1000F8940B8FEA89FB8980818062CFCFCF93D1
:100F2000DF93EC01888D8823B9F0AA89BB89E88911
:100F3000F9898C9185FD03C0808186FD0DC00FB6B7
:100F400007FCF7CF8C9185FFF2CF808185FFEDCF35
:100F5000CE010E942007E9CFDF91CF910895815003
:100F6000823108F05AC0E82FF0E08827E554F84FA6
:100F70008F4F0C94316CDB07DF07CD07D307D70702
:100F80000D08E207E807EC07F207F607FA07000882
:100F900004080D0808080E081208809180008F7759
:100FA000809380000895809180008F7DF9CF80919B
:100FB0008000877FF5CF84B58F7784BD089584B591
:100FC0008F7DFBCF8091B0008F778093B000089524
:100FD0008091B0008F7DF9CF809190008F778093C2
:100FE00090000895809190008F7DF9CF80919000BE
:100FF000877FF5CF8091A0008F778093A000089520
:101000008091A0008F7DF9CF8091A000877FF5CFE0
:10101000809120018F778093200108958091200195
:101020008F7DF9CF80912001877FF5CFCF93DF931C
:10103000282F30E0F901EF5EFB4F8491F901E75270
:10104000FA4FD491F901E75CF94FC491CC23A1F098
:1010500081110E94AF07EC2FF0E0EE0FFF1FE95067
:10106000FC4FA591B491EC91ED2381E090E009F45F
:1010700080E0DF91CF91089580E090E0FACF1F9358
:10108000CF93DF93282F30E0F901EF5EFB4F84917F
:10109000F901E752FA4FD491F901E75CF94FC49195
:1010A000CC23A9F0162F81110E94AF07EC2FF0E09E
:1010B000EE0FFF1FE15EF94FA591B4918FB7F89441
:1010C000EC91111108C0D095DE23DC938FBFDF9126
:1010D000CF911F910895DE2BF8CF8F929F92AF9200
:1010E000BF92CF92DF92EF92FF920F931F93CF9315
:1010F00010E000E0809162139091631308171907C4
:101100006CF4E0915812F0915912E00FF11F61E078
:1011100080810E943F080F5F1F4FECCF10E000E07E
:101120008BE4882E912C80916213909163130817A1
:1011300019070CF061C0E0915812F0915912E00FBC
:10114000F11F60E080810E943F08C4010197F1F720
:10115000F12CE12C8091601390916113E816F9064F
:10116000F4F58091621390916313E89E6001E99E0B
:10117000D00CF89ED00C1124C00ED11EE091561256
:10118000F0915712EE0DFF1D80810E941608A0906D
:101190005A12B0905B12AC0CBD1CF501C0812C2F13
:1011A0002270892BB1F421110EC0C66081E00E942B
:1011B00071058091541290915512C80ED91EF601F6
:1011C00080810E947105F501C083FFEFEF1AFF0ACD
:1011D000C1CF2223C1F3CD7FC86080E0E8CFE0918A
:1011E0005812F0915912E00FF11F61E080810E94C6
:1011F0003F080F5F1F4F97CFCF911F910F91FF9027
:10120000EF90DF90CF90BF90AF909F908F90089518
:10121000CF93DF9390E0FC01E752FA4F2491875C73
:10122000994FFC0184918823C9F090E0880F991FA1
:10123000FC01E352FC4FA591B491FC01E15EF94F32
:10124000C591D49161110DC09FB7F8948C912095F0
:1012500082238C938881282328839FBFDF91CF919D
:101260000895623051F49FB7F8943C91822F809595
:1012700083238C93E8812E2BEFCF8FB7F894EC91DA
:101280002E2B2C938FBFEACF4F925F926F927F925B
:101290008F929F92AF92BF92CF92DF92EF92FF9286
:1012A0000F931F93CF93DF9300D01F921F92CDB760
:1012B000DEB78C0149835A836B837C8380918D02D6
:1012C0008D32C9F08F3F09F480C00F900F900F90BE
:1012D0000F900F90DF91CF911F910F91FF90EF90A2
:1012E000DF90CF90BF90AF909F908F907F906F9046
:1012F0005F904F900895EFE7F6E084918D8387FD2E
:10130000E4CF61E08DE20E9408099D81992321F0DC
:101310008D81823009F0D4C14801B12CA12C60E04C
:1013200072E18AE790E0A50198010E94176A2901FD
:101330003A0160E472E48FE090E0A50198010E9418
:10134000176A69017A0191E0C91AD108E108F10828
:101350008D81823009F010C19FEFC916D104E104DC
:10136000F10409F00CF4A4C160E970ED83E090E0B1
:10137000A50198010E94176A69017A0181E0C81AE3
:10138000D108E108F10883E09FEFC916D104E10418
:10139000F10409F00CF48DC168E478EE81E090E08E
:1013A000A50198010E94176A69017A0191E0C91AA2
:1013B000D108E108F1088FEFC816D104E104F10467
:1013C00011F00CF016C184E074C18DE280938D029F
:1013D000EFE7F6E094919D83892F9F3F09F475CF45
:1013E000923009F469C060F4992381F1913009F4D5
:1013F00045C087FD6ACF61E08DE20E94080988CF71
:101400009D81943009F49AC008F478C0953089F72A
:101410001092200110922101809121018860809317
:10142000210180912101816080932101E6E6F6E0AF
:10143000E491F0E0EE0FFF1FE15EF94F859194918A
:10144000E6E0F6E0E491E093F90B5BCF14BC15BC49
:1014500084B5826084BD85B5816085BDE6E6F6E031
:10146000E491F0E0EE0FFF1FE15EF94F859194915A
:10147000E6E0F6E0E491E093000C43CF10928000A8
:10148000109281008091810088608093810080911A
:101490008100816080938100E6E6F6E0E491F0E06F
:1014A000EE0FFF1FE15EF94F85919491E6E0F6E0C3
:1014B000E491E093FF0B25CF1092B0001092B100A1
:1014C0008091B00082608093B0008091B100816013
:1014D0008093B100E6E6F6E0E491F0E0EE0FFF1F46
:1014E000E15EF94F859194919093FE0B8093FD0BF3
:1014F000E6E0F6E0E491E093FC0B03CF109290005D
:101500001092910080919100886080939100809169
:101510009100816080939100E6E6F6E0E491F0E0CE
:10152000EE0FFF1FE15EF94F85919491E6E0F6E042
:10153000E491E093FB0B83E08D83E3CE1092A00057
:101540001092A1008091A10088608093A1008091F9
:10155000A10081608093A100E6E6F6E0E491F0E06E
:10156000EE0FFF1FE15EF94F85919491E6E0F6E002
:10157000E491E093FA0BC5CE8FEFC816D104E104D5
:10158000F10409F00CF48FC068E478EE81E090E09B
:10159000A50198010E94176A69017A0191E0C91AB0
:1015A000D108E108F1088D81882309F457C184E04E
:1015B0009FEFC916D104E104F10409F008F479C0E1
:1015C00062E17AE780E090E0A50194010E94176A49
:1015D00069017A0191E0C91AD108E108F1088FEF99
:1015E000C816D104E104F10411F00CF00DC186E03D
:1015F00060C064E274EF80E090E0A50194010E9475
:10160000176A69017A0191E0C91AD108E108F10865
:1016100085E0CECF62E17AE780E090E0A501940119
:101620000E94176A69017A0181E0C81AD108E108AD
:10163000F1089FEFC916D104E104F10411F00CF098
:10164000D3C094E085B5887F892B85BDD801AA0FCA
:10165000BB1F29813A814B815C810E94366A28EE4A
:1016600033E040E050E00E94496A9D81923009F4E5
:1016700087C00CF0D9C0992309F473C0913009F0E8
:1016800024CED0928900C09288002093110C309310
:10169000120C4093130C5093140C80916F008260D5
:1016A00080936F0012CE8D81811102C092E0CACF6B
:1016B00082E09091B100987F892B8093B100C6CFD2
:1016C000B12CA12C60E072E18AE790E0A5019801BD
:1016D0000E94176A69017A0191E0C91AD108E108EC
:1016E000F10891E0C114D10481E0E806F10484F02E
:1016F00068E478EE81E090E0A50198010E94176A05
:1017000069017A0191E0C91AD108E108F10893E072
:101710008D81813039F480918100887F892B80937D
:10172000810094CF8D81833039F480919100887F3E
:10173000892B809391008ACF8D81843039F48091F8
:10174000A100887F892B8093A10080CF8D81853077
:1017500009F07CCF80912101887F892B8093210122
:1017600075CFC7BC2093150C3093160C4093170C03
:101770005093180C80916E00826080936E00A5CD0E
:10178000C092B30020930D0C30930E0C40930F0CBD
:101790005093100C8091700082608093700095CD02
:1017A000D0929900C09298002093090C30930A0CB3
:1017B00040930B0C50930C0C8091710082608093CD
:1017C000710083CDD092A900C092A8002093050C8F
:1017D0003093060C4093070C5093080C80917200D4
:1017E00082608093720071CD730162012AE0F594EA
:1017F000E794D794C7942A95D1F791E0C91AD108F4
:10180000E108F10895E01ECF730162019AE0F594BA
:10181000E794D794C7949A95D1F781E0C81AD10874
:10182000E108F10887E045CF8D81843059F20CF44E
:10183000B7CF853009F049CDD0922901C092280157
:101840002093010C3093020C4093030C5093040C32
:101850008091730082608093730037CD9FEFC9162B
:10186000D104E104F10411F00CF0D4CE93E0EACEFF
:101870001F93CF93DF93182FEB0161E00E940809BB
:10188000209739F460E0812FDF91CF911F910C9464
:101890003F08CF3FD10511F461E0F5CFE12FF0E033
:1018A000EF5EFB4FE491E150E23108F0B3C0F0E0AD
:1018B0008827E25AF34F8F4F0C94316C700C780CE0
:1018C0007D0C870C910C0A0D9B0CA30CAB0CB50C7A
:1018D000BF0CC90CD80CE20C0A0DEC0CF60C000D78
:1018E00084B5806884BDC7BDDF91CF911F910895F5
:1018F00084B5806284BDC8BDF7CF809180008068C8
:1019000080938000D0938900C0938800EDCF8091B0
:101910008000806280938000D0938B00C0938A0007
:10192000E3CF80918000886080938000D0938D0009
:10193000C0938C00D9CF8091B00080688093B000B4
:10194000C093B300D1CF8091B00080628093B0008B
:10195000C093B400C9CF80919000806880939000BC
:10196000D0939900C0939800BFCF8091900080627F
:1019700080939000D0939B00C0939A00B5CF809144
:101980009000886080939000D0939D00C0939C004D
:10199000ABCF8091A00080688093A0008091A000D0
:1019A0008F7B8093A000D093A900C093A8009CCF08
:1019B0008091A00080628093A000D093AB00C09380
:1019C000AA0092CF8091A00088608093A000D0935D
:1019D000AD00C093AC0088CF8091200180688093D7
:1019E0002001D0932901C09328017ECF809120014E
:1019F000806280932001D0932B01C0932A0174CF81
:101A000080912001886080932001D0932D01C093A4
:101A10002C016ACFC038D1050CF03ECF33CF3FB791
:101A2000F8948091D2099091D309A091D409B091F2
:101A3000D50926B5A89B05C02F3F19F00196A11D19
:101A4000B11D3FBFBA2FA92F982F8827BC01CD0108
:101A5000620F711D811D911D42E0660F771F881F67
:101A6000991F4A95D1F708958F929F92AF92BF9296
:101A7000CF92DF92EF92FF924B015C010E940F0D1B
:101A80006B017C010E940F0D6C197D098E099F0965
:101A9000683E734081059105A8F321E0821A910800
:101AA000A108B10888EEC80E83E0D81EE11CF11C25
:101AB00081149104A104B10429F7FF90EF90DF9005
:101AC000CF90BF90AF909F908F9008952FB7F894CC
:101AD0006091CE097091CF098091D0099091D10980
:101AE0002FBF0895DC0150E0E2EDF3E081E08617BE
:101AF00030F49491490F511D8F5F3196F8CF6330C8
:101B000038F0CD0183709927892B11F44F5F5F4F17
:101B10009D012D5F3F4F36952795369527956DE6AC
:101B200071E0A69FC001A79F900DB69F900D112454
:101B30000197820F931F840F951F0895CF93CFB7FE
:101B4000F8948091CC09811127C0EEE6F6E08491EB
:101B5000EEE0F6E09491E82FF0E0EE0FFF1FE35285
:101B6000FC4FA591B491EC91E92321F461E085E368
:101B70000E943F0861E085E30E9408098CB58061FE
:101B80008CBD8CB580648CBD61E084E30E94080943
:101B900061E083E30E9408098091CC098F5F809304
:101BA000CC09CFBFCF910895089561E0FC018481F5
:101BB0000E943F088091C60981111092C6090895BC
:101BC0008EBD00000DB407FEFDCF8EB50895EF92D7
:101BD000FF920F931F93CF93DF939091D9109F3F64
:101BE00041F4DF91CF911F910F91FF90EF900C94F2
:101BF000E00DD82FC0E007E010E0EE24E394F12CD4
:101C0000CC0F60E08091D9100E943F08B701002EF0
:101C100001C0660F0A94EAF76D238091D7100E94E5
:101C20003F0861E08091D9100E943F088091D81050
:101C30000E941608892B09F0C1600150110900F7B4
:101C40008C2FDF91CF911F910F91FF90EF9008950E
:101C50008FEF0C94E00D0F931F93CF93DF93EC0164
:101C60000E94660D8B010E94280E8F3F69F00E9432
:101C7000660D601B710B6C177D07A8F380E0DF9188
:101C8000CF911F910F91089581E0F9CF8CBD9DBD3B
:101C90000895EF92FF920F931F93CF93DF93EC0180
:101CA0007B018A018091501190915111892B41F053
:101CB000E0915211F0915311808191810E94460E62
:101CC00060E080915B110E943F0888810E9451046E
:101CD000E7010E0D1F1D0C171D0729F08FEF0E9445
:101CE00051048993F8CF61E080915B110E943F0815
:101CF00081E0DF91CF911F910F91FF90EF900895B8
:101D0000CF93DF931F921F92CDB7DEB71A828983DC
:101D100041E050E0BE016E5F7F4FCE0101960E9410
:101D2000490E8A810F900F90DF91CF910895CF9344
:101D3000DF93C62FD82FD068809150119091511108
:101D4000892B41F0E0915211F091531180819181E2
:101D50000E94460E60E080915B110E943F088D2F2B
:101D60000E9451048C2F0E94510461E080915B110C
:101D7000DF91CF910C943F08CF92DF92EF92FF92C8
:101D8000CF93DF9300D01F92CDB7DEB780916D1156
:101D900090916E11892B59F580E00E94800E8F770B
:101DA000682F606480E00E94970E0E94660D6B01B0
:101DB0007C0180916D1190916E110297C1F080E0CD
:101DC0000E94800E86FF13C00E94660D6C197D096B
:101DD0008E099F096B3F71058105910508F041C08F
:101DE0006AE070E080E090E00E94340DE2CF19825A
:101DF0001A821B828CE08C8343E050E0BE016F5F4F
:101E00007F4FCE0104960E94490E69817A81762720
:101E100067277627CB01B0E0A0E0BA2FA92F982F33
:101E200088272B81822BA7FDBF6FBC01CD0125E048
:101E300095958795779567952A95D1F70E94E168E2
:101E400020E030E040E05CE30E9440690F900F909A
:101E50000F900F90DF91CF91FF90EF90DF90CF9098
:101E6000089560E070E080EC9FE7F0CF81E00E9491
:101E7000800E807F682F636081E00C94970ECF9373
:101E8000DF93EC018091C609811109C081E0809344
:101E9000C6098091ED0E9091EE0E0E94460E60E014
:101EA0008C81DF91CF910C943F088F929F92AF92DB
:101EB000BF92FF920F931F93CF93DF93EC01F62E07
:101EC00049015A018E81882389F08F8198859C0170
:101ED0002F5F3F4F38872F838230924018F40E9443
:101EE000280EF3CFCE010E94D50D1E82CE010E9496
:101EF0003F0F8CE291E00E942B0E8F2D80640E9498
:101F0000E00D08E110E0D501C401002E04C0B69533
:101F1000A795979587950A94D2F70E94E00D0850EF
:101F20001109083F8FEF180771F785E9FF2021F0AD
:101F300028E087E8F2128FEF0E94E00D10E00E9487
:101F4000280E8A8787FF04C01F3F11F01F5FF7CF5D
:101F5000DF91CF911F910F91FF90BF90AF909F9015
:101F60008F900895AF92BF92CF92DF92EF92FF923F
:101F70000F931F93CF93DF93EC016901C801820F88
:101F8000931F8130924050F58E81882379F08881AB
:101F90009981AA81BB8184179507A607B70731F4F9
:101FA0008F819885C816D90608F042C048835983A6
:101FB0006A837B838B85833039F089E0440F551F1A
:101FC000661F771F8A95D1F79A01AB0161E1CE01B7
:101FD0000E94550F882389F083E08D83CE010E94F3
:101FE000D50D80E0DF91CF911F910F91FF90EF9081
:101FF000DF90CF90BF90AF9008950E94660D5B0177
:102000000E94280E8A878F3F69F40E94660D6A1924
:102010007B096D327140A0F38FE08D83CE010E9469
:10202000D50DDCCF8E3F89F418861F8281E08E8328
:102030008F8198858C159D0550F40E94280E8F8104
:102040009885019698878F83F3CF8DE0E6CF67015F
:10205000E00EF11E0E94280EF60181936F01EE152D
:10206000FF05C1F78F819885080F191F18870F8307
:102070008985882319F001151240A0F08E818823EC
:1020800089F08F8198859C012F5F3F4F38872F8380
:102090008230924018F40E94280EF3CFCE010E94A5
:1020A000D50D1E8281E09ECFCF92DF92EF92FF92FC
:1020B0000F93CF93DF93EC01690182E14115510544
:1020C0006105710599F08B85833039F089E0440F03
:1020D000551F661F771F8A95D1F79A01AB0168E1FA
:1020E000CE010E94550F882319F084E08D832DC006
:1020F0008EEF0E94E00D76018EEFD81AF7018191E4
:102100007F010E94E00DEC14FD04C1F78FEF0E94E7
:10211000E00D8FEF0E94E00D0E94280E8A878F71DC
:10212000853071F4011116C0CE010E94D50D81E0F9
:10213000DF91CF910F91FF90EF90DF90CF900895B6
:1021400081E18D83CE010E94D50DCE010E94D50D77
:1021500080E0EECF88E592E00E942B0E811102C054
:1021600085E1C4CF20E030E0A9016DE0CE010E94FE
:10217000550F882311F084E1B9CF0E94280E8111F8
:10218000FACFD2CF0F934091C8095091C9096091FD
:10219000CA097091CB09411551056105710599F086
:1021A000082F27EF39E08091F70B9091F80B0E94F0
:1021B0005410882349F01092C8091092C90910924E
:1021C000CA091092CB0981E00F9108950F93CF9324
:1021D000C82F8091C709811105C0C1E08C2FCF9114
:1021E0000F910895409114025091150260911602CA
:1021F000709117020C2F27EF39E08091F70B909127
:10220000F80B0E945410811102C0C0E0E7CFCC232C
:1022100021F381E00E94C2108823B9F31092C7090C
:10222000DDCF8F929F92AF92BF92EF92FF920F936A
:102230001F93CF934B015C01C42F809114029091A6
:102240001502A0911602B091170288159905AA05EA
:10225000BB0551F181E00E94E61081110BC080E0C6
:10226000CF911F910F91FF90EF90BF90AF909F90F3
:102270008F90089587EFE82E89E0F82E00E012E0B5
:1022800030E020E0B501A4018091F70B9091F80BAC
:102290000E94B20F882319F38092140290921502C3
:1022A000A0921602B09217024091C7094C2B40939E
:1022B000C70981E0D5CF8F929F92AF92BF92CF9204
:1022C000DF92EF92FF92CF932FEE3EE03093F80B28
:1022D0002093F70B882309F46DC040E060E070E0C4
:1022E000CB010E94111181110BC080E0CF91FF90B2
:1022F000EF90DF90CF90BF90AF909F908F90089518
:102300008091B50B8F7789F78091C10B9091C20BAB
:10231000A091C30BB091C40B84369105A105B10502
:1023200020F3C090BD0BD090BE0BE090BF0BF0909F
:10233000C00BC114D104E104F104B9F240E0C701BB
:10234000B6010E941111882381F28091020A9091B6
:10235000030A8115924049F6A091070AAA2329F29F
:102360006091050A7091060A6115710509F4BDCFE7
:102370002091040A222309F4B8CFA0930D0F2093D3
:10238000FF0E90E080E030E0E1E0F0E0C82FAF0128
:10239000082E02C0440F551F0A94E2F72417350790
:1023A00069F041E0480F01968930910579F7409333
:1023B000080F9BCFC12CD12C7601C0CF8093080F82
:1023C00020910D0A30910E0A50E040E021153105B0
:1023D00041F420911B0A30911C0A40911D0A509132
:1023E0001E0A2093000F3093010F4093020F509369
:1023F000030F46015701860E971EA11CB11C809247
:102400000E0F90920F0FA092100FB092110FE0914B
:10241000080AF091090AF093140FE093130FB0E04B
:102420000E94366ADC01CB01880D991DAA1DBB1DD7
:102430008093150F9093160FA093170FB093180F5A
:1024400025E0EE0FFF1F2A95E1F7E150FE4FEF2F39
:10245000FF27E6958E0F9F1FA11DB11D8093090FC9
:1024600090930A0FA0930B0FB0930C0F80900A0A61
:1024700090900B0AB12CA12C8114910441F480900E
:10248000170A9090180AA090190AB0901A0AC81A50
:10249000D90AEA0AFB0AC80CD91CEA1CFB1C04C0B6
:1024A000F694E794D794C794CA95D2F7C092040FD4
:1024B000D092050FE092060FF092070F85EFC81635
:1024C0008FE0D806E104F10428F48CE08093120F29
:1024D00081E00CCF80E125EFC2162FEFD206E10498
:1024E000F104A0F38091230A9091240AA091250A77
:1024F000B091260A8093150F9093160FA093170F93
:10250000B093180F80E2E2CF4F925F926F927F926A
:102510008F929F92AF92BF92CF92DF92EF92FF92F3
:102520000F931F93CF93DF93EC0142305105610568
:10253000710590F480E0DF91CF911F910F91FF9092
:10254000EF90DF90CF90BF90AF909F908F907F9053
:102550006F905F904F90089589859A85AB85BC8573
:102560000196A11DB11D84179507A607B70710F3A3
:10257000CB88DC88ED88FE888F89803109F042C0E5
:10258000BB27A72F962F852F480159012A013B0110
:10259000C80ED91EEA1EFB1E8091140290911502EE
:1025A000A0911602B0911702C816D906EA06FB06DA
:1025B00099F58F898031C1F5B301A20155276627AE
:1025C0007727440F551F4950564FFA019182808258
:1025D0008091C70981608093C7098A89823080F021
:1025E0008D819E81AF81B8858C0D9D1DAE1DBF1D57
:1025F0008093C8099093C909A093CA09B093CB09E5
:1026000081E099CFDB01CA01E7E0B695A7959795E0
:102610008795EA95D1F7B8CF40E0C701B6010E948F
:1026200011118111C6CF86CFB301A2014F77552773
:1026300066277727440F551F440F551F4950564FA3
:10264000FA0180829182A282B382C2CF8F929F923E
:10265000AF92BF92CF92DF92EF92FF920F931F93B0
:10266000CF93DF93FC0181859285A385B485019684
:10267000A11DB11D84179507A607B70770F480E068
:10268000DF91CF911F910F91FF90EF90DF90CF904E
:10269000BF90AF909F908F90089583889488A5886D
:1026A000B6888789803189F5BB27A72F962F852F7C
:1026B000E9016A017B018F01BC01CD01680D791D23
:1026C0008A1D9B1D8090140290901502A090160206
:1026D000B090170286169706A806B90601F5F8010C
:1026E0008789803111F5DD24EE24FF24F601EE0FF9
:1026F000FF1FE950F64F80819181B0E0A0E0888310
:102700009983AA83BB8381E0BBCFDB01CA01C7E009
:10271000B695A79597958795CA95D1F7C9CF40E00B
:102720000E9411118111DBCFAACFE894C7F8DD24F4
:10273000EE24FF24F601EE0FFF1FEE0FFF1FE950FE
:10274000F64F80819181A281B381BF70D8CF4F9223
:102750005F926F927F92AF92BF92CF92DF92EF9291
:10276000FF920F931F93CF93DF9300D01F92CDB7AB
:10277000DEB78C0149835A836B837C835901C12C5A
:10278000D12C7601412C82E0582E612C712C49818C
:102790005A816B817C819E012F5F3F4FC8010E944F
:1027A0002613882339F1F8018585A301920104C01D
:1027B000220F331F441F551F8A95D2F7DA01C90132
:1027C000C80ED91EEA1EFB1E49815A816B817C818D
:1027D0008789803111F188EF9FEFAFEFBFE0481795
:1027E00059076A077B0798F2F501C082D182E2821D
:1027F000F38281E00F900F900F900F90DF91CF91B7
:102800001F910F91FF90EF90DF90CF90BF90AF900E
:102810007F906F905F904F90089588EF9FEFA0E0BA
:10282000B0E0DDCFCF93DF93FC012581222321F09F
:1028300080E0DF91CF910895EC018091120F8031FB
:1028400059F582E08583178A108E118E128E809141
:10285000130F9091140FB0E0A0E025E0880F991FAE
:10286000AA1FBB1F2A95D1F7838B948BA58BB68BA0
:102870008BEF9EE09C8F8B8F81E08C831E821F826A
:10288000188619861A861B861C861D861E861F863C
:10289000188A198A1A8ACDCF803251F683E085834F
:1028A0004091150F5091160F6091170F7091180FEE
:1028B000478B508F618F728F9F012D5E3F4F8BEF43
:1028C0009EE00E94A7138111D3CFB2CF8F929F9227
:1028D000AF92BF92CF92DF92EF92FF920F931F932E
:1028E000CF93DF93EC018D8181110EC080E0DF91E9
:1028F000CF911F910F91FF90EF90DF90CF90BF90FD
:10290000AF909F908F9008950B891C892D893E89E7
:10291000041715072607370748F34A015B01823081
:1029200031F48A869B86AC86BD8681E0E0CF811437
:102930009104A104B10449F41E821F8218861986ED
:102940001A861B861C861D86F0CF0A851B852C8562
:102950003D85EB8DFC8D858590E00996B901A80138
:102960004150510961097109082E04C07695679597
:10297000579547950A94D2F775016401E1E0CE1AA4
:10298000D108E108F10804C0F694E794D794C794FD
:102990008A95D2F7C416D506E606F70620F0012B75
:1029A000022B032B11F58F89988DA98DBA8D8E83FB
:1029B0009F83A887B9878E010A5F1F4FC114D10476
:1029C000E104F10409F4ADCF4E815F81688579851A
:1029D00098018B8D9C8D0E94261391E0C91AD10815
:1029E000E108F1088111EACF81CFC41AD50AE60ABD
:1029F000F70AE1CF3F924F925F926F927F928F9250
:102A00009F92AF92BF92CF92DF92EF92FF920F937D
:102A10001F93CF93DF93CDB7DEB72C970FB6F89403
:102A2000DEBF0FBECDBF5C01DC015B968D909C903C
:102A30005C9716964D905D906D907C90199741141F
:102A400051046104710409F468C0BFEF4B1A5B0ABA
:102A50006B0A7B0A312CF40181859285A385B485AC
:102A60009C01AD012F5F3F4F4F4F5F4F29873A8742
:102A70004B875C87730162011D821E821F8218864C
:102A8000F40181859285A385B4852D813E814F8196
:102A90005885281739074A075B0708F056C089850B
:102AA0009A85AB85BC858C159D05AE05BF0550F498
:102AB00082E0C82ED12CE12CF12C92E0492E512C31
:102AC000612C712C9E012F5F3F4FB701A601C401FD
:102AD0000E9426138823C9F189819A81AB81BC8128
:102AE000892B8A2B8B2B09F1260137019FEF491A7D
:102AF000590A690A790A2D813E814F8158852F5FD5
:102B00003F4F4F4F5F4F2D833E834F8358873FEF9B
:102B1000C31AD30AE30AF30AB3CFF4014080518009
:102B2000628073803324339496CFC414D504E604B2
:102B3000F70409F70FEF1FEF2FEF3FE0B701A601F2
:102B4000C4010E948412811119C080E02C960FB636
:102B5000F894DEBF0FBECDBFDF91CF911F910F91D3
:102B6000FF90EF90DF90CF90BF90AF909F908F90AD
:102B70007F906F905F904F903F900895D50116968B
:102B80004D915D916D917C911997411551056105AC
:102B9000710539F097018601C4010E9484128823CF
:102BA000A1F2D5011696CD92DD92ED92FC92199785
:102BB000332051F0D701C6010196A11DB11DF401CA
:102BC00080839183A283B383F5018789908DA18D42
:102BD000B28D892B8A2B8B2B39F48481C78AD08EB6
:102BE000E18EF28E80688483F50184818062848323
:102BF00081E0ACCF1F93CF93DF93FC01258122238B
:102C0000D1F1162FEC01848187FF2AC06685778574
:102C10008089918941E00E941111882361F1EA893C
:102C200080E2E89FF0011124E950F64F309719F146
:102C30008D81823040F48B899C89AD89BE89848FD7
:102C4000958FA68FB78F8F89988D938F828F8F895D
:102C5000988DA98DBA8DB58BA48B8C818F778C8341
:102C6000111103C08C818F7E8C83812FDF91CF91D6
:102C70001F910C94E61080E0DF91CF911F91089591
:102C8000FF920F931F93CF93DF93EC018D818130DF
:102C900041F090E080E0DF91CF911F910F91FF9084
:102CA00008958C8181FFF5CF82FD1BC00091F70B49
:102CB0001091F80BC8010E943F0F0E94280EF82EB9
:102CC000C8010E94D50D8FEFF812E3CF8C8185FFEC
:102CD0001BC060E0CE010E94FA158C818F7D8C8331
:102CE000D8CF4B895C896D897E898A859B85AC8527
:102CF000BD8584179507A607B707C1F2CE010E94CC
:102D000066148111D3CFC5CF4091C8095091C9092C
:102D10006091CA097091CB09452B462B472B21F0B6
:102D200080E00E94C210B5CF80618C832A853B85EC
:102D3000317080E092E0821B930BADCFCF93DF9395
:102D4000EC0161E00E94FA15882311F01D8281E0F8
:102D5000DF91CF9108952F923F924F925F926F92A1
:102D60007F928F929F92AF92BF92CF92DF92EF921B
:102D7000FF920F931F93CF93DF9300D01F921F9268
:102D8000CDB7DEB77C015B01342E5D83DC01159687
:102D90008C911597813009F0CEC014962C9021FEAD
:102DA000CAC022FCB4C0C32CDD8022947FE027225D
:102DB0002094B22DB1702B2ED7011A964D915D91B2
:102DC0006D917C911D97C114D10409F428C15B96C3
:102DD0008D919C915C97FC0174807A948A019B018F
:102DE00069E036952795179507956A95D1F7702272
:102DF0008A011170711020C001151105E9F41696B1
:102E00004D915D916D917C91199741155105610529
:102E1000710509F099C057968D919D910D90BC91C7
:102E2000A02D0097A105B10509F0B0C0C7010E940F
:102E3000FA14882309F47FC080E092E0801B910B94
:102E400046018C159D0508F44C01D7015B964D9108
:102E50005C915C9716968D919D910D90BC91A02DE3
:102E60000297A109B109FA01258504C0880F991FAD
:102E7000AA1FBB1F2A95D2F746855785608971899D
:102E8000840F951FA61FB71F9C01AD01270D311D93
:102E9000411D511D29013A01811432E0930609F0C8
:102EA0007BC08091140290911502A0911602B091FE
:102EB000170284159505A605B70559F48FEF9FEF06
:102EC000DC018093140290931502A0931602B09334
:102ED0001702022D9501B301A2018091F70B909189
:102EE000F80B0E945410882331F19EEFB91AC818CC
:102EF000D908F70182859385A485B585880D991D2C
:102F0000A11DB11D82879387A487B58755CFF7018F
:102F1000438954896589768982859385A485B58599
:102F2000481759076A077B0709F43DCFC7010E947C
:102F30006614811138CF81E090E0D70113969C93FD
:102F40008E93129780E007C09E012F5F3F4F0E9433
:102F50002613811102C090E079C089819A81AB81EA
:102F6000BC81F701238D348DF901278948EF5FEF8C
:102F700060E070E0203121F048EF5FEF6FEF7FE01D
:102F800084179507A607B70708F050CFF701868387
:102F90009783A087B18750CF0115110599F5D70107
:102FA0001A964D915D916D917C911D9753968D91DF
:102FB0009D910D90BC91A02D481759076A077B077A
:102FC00008F181E00E94E610882309F4B4CF409212
:102FD00014025092150260921602709217028091AC
:102FE000C70981608093C709C8018950964FD501F0
:102FF0009C01280D391DFC012E173F0759F04D91FA
:103000004193FACF41E0C301B2010E941111811135
:10301000EBCF91CF281B390BA20EB31E68CFF7015F
:1030200083899489A589B68984179507A607B70768
:1030300038F48481438B548B658B768B80688483D2
:10304000F701848183FD1AC0832D9D810F900F901D
:103050000F900F900F90DF91CF911F910F91FF90E4
:10306000EF90DF90CF90BF90AF909F908F907F9028
:103070006F905F904F903F902F90089561E0C7014F
:103080000E94FA15882309F456CFDECFCF93DF9341
:103090001F92CDB7DEB7698341E050E0BE016F5F9C
:1030A0007F4F0E94AB160F90DF91CF910895FC01E6
:1030B000DB0112968D919C911397938382838DE00F
:1030C00093E09183808314968C9114978483159652
:1030D0008C911597858316964D915D916D917C919C
:1030E000199746835783608771871A964D915D9132
:1030F0006D917C911D9742875387648775871E96D3
:103100004D915D916D917C91519746875787608B6A
:10311000718B52968C915297828B53964D915D9103
:103120006D917C915697438B548B658B768B57961C
:103130004D915D916D917C915A97478B508F618F26
:10314000728F5B968D919C91948F838F0895FC0173
:10315000818D928D009719F061E00C94FA15089515
:10316000DC015996ED91FC913097B9F083899489EF
:10317000A589B6894285538564857585841B950B21
:10318000A60BB70B811520E89207A105B10538F011
:103190008FEF9FE7A0E0B0E0089590E080E0089511
:1031A000DC0159968D919C91009739F0DC01ED91ED
:1031B000FC910480F581E02D199490E080E0089561
:1031C000CF93DF93EC01E98DFA8D309749F481E0DC
:1031D00090E09B838A8390E080E0DF91CF91089517
:1031E00013821282898D9A8D0E94AB16E98DFA8D19
:1031F00022813381232B59F7F0CFCF93DF931F9296
:10320000CDB7DEB76983DC01ED91FC910280F381DB
:10321000E02D41E050E0BE016F5F7F4F19950F90A8
:10322000DF91CF9108952F923F924F925F926F92CC
:103230007F928F929F92AF92BF92CF92DF92EF9246
:10324000FF920F931F93CF93DF9300D0CDB7DEB7DC
:10325000FC018581811118C08FEF9FEF0F900F90B7
:103260000F90DF91CF911F910F91FF90EF90DF9022
:10327000CF90BF90AF909F908F907F906F905F9016
:103280004F903F902F900895848180FFE5CF438930
:1032900054896589768982859385A485B585312C85
:1032A000212C481759076A077B0719F02224239419
:1032B000312C6F012101CE0101963C01DF011696F0
:1032C000BB83AA834114510409F4C5C0F6014285A9
:1032D0005385648575854A01F1E09F22D6015B968E
:1032E0008D919C915C978A019B01E9E03695279529
:1032F00017950795EA95D1F71596EC91E230E9F527
:10330000FC01628D738D848D958D600F711F821FFE
:10331000931FA12C22E0B22EA818B9084A145B040E
:1033200008F45201F601248126FD04C0A114F2E044
:10333000BF0671F40091140210911502209116023B
:1033400030911702061717072807390709F05EC0E2
:1033500040E00E941111882309F47ECFC4018950F6
:10336000964FD3019C012A0D3B1DFC012E173F07F0
:1033700009F46CC041914D93F9CFDC011496BC90D7
:10338000BA94B0228114910479F4B1100DC0452B88
:10339000462B472B69F5F6018789908DA18DB28D5B
:1033A00086839783A087B187D6015B96ED91FC91C8
:1033B0005C9716966D917D918D919C9119976250B5
:1033C000710981099109258504C0660F771F881F3F
:1033D000991F2A95D2F70685178520893189600FB4
:1033E000711F821F931F6B0D711D811D911D91CF48
:1033F000D60116964D915D916D917C9119972A8118
:103400003B810E9426138111CFCF26CF7301850106
:103410009401AB01BC018091F70B9091F80B0E94D5
:10342000B20F882309F418CF6A0C7B1CF601828541
:103430009385A485B5858A0D9B1DA11DB11D82872D
:103440009387A487B5874A185B083CCF281B390BA4
:10345000620E731EEBCF2A94232809F0FDCE8981DA
:1034600090E0FCCEFC01818D928D009711F00C94C0
:1034700013198FEF9FEF08950F931F93CF93DF934F
:10348000EC01898D9A8D10E000E0009799F00E9480
:1034900013198C010F3F100769F0898D9A8DFC017B
:1034A00042855385648575854150510961097109CB
:1034B0000E946614C801DF91CF911F910F9108956A
:1034C0002091A109260F3327331F21323105ECF457
:1034D00020914B0CFC0190E080E0243069F082E008
:1034E0000895A091A1092191AC014F57564FA40F07
:1034F000B52FB11D2C930196861798F38091A109E1
:10350000680F6093A10980E0089581E0089510920A
:103510004B0C81E080934A0C1092450C61E084E1F1
:103520000E943F0861E085E10E943F08E9EBF0E07E
:1035300080818E7F808380818D7F808388E48093EB
:10354000B80085E48093BC0008951092720C10922C
:10355000710C1092740C1092730C0E94871A8FE4F5
:1035600094E090931C0C80931B0C80E594E0909366
:103570001A0C8093190C0895CF93DF9391E09093E8
:1035800080098823B9F0C091B800D091BA00809129
:10359000BC008A7B8093BC0060E084E10E943F080D
:1035A00060E085E10E943F080E94871AD093BA002C
:1035B000C093B800DF91CF910895CF92DF92EF9240
:1035C000FF920F931F93CF93DF93D82FC62F6132B3
:1035D00008F098C00E940F0D6B017C0180914B0C8C
:1035E00081116BC081E080934B0C80934A0C9FEF5C
:1035F0009093490C1092480C9C0F9093470C809329
:10360000460C8091460CDD0FD82BD093460C809150
:10361000450C813009F078C01092450C0E940F0DC6
:103620006B017C018091460C8093BB0080914D0C16
:1036300090914E0CA0914F0CB091500C892B8A2B7D
:103640008B2BA1F00E940F0D00914D0C10914E0C90
:1036500020914F0C3091500C6C197D098E099F09F7
:10366000061717072807390708F448C08091BC00DF
:1036700083FDD8CF85EC8093BC000E940F0D6B01B9
:103680007C0180914B0C813009F440C08091480C42
:103690008C1710F4C091480CE5E2FCE0A1E5BCE019
:1036A00080E08C1355C08C2FDF91CF911F910F912B
:1036B000FF90EF90DF90CF90089580914D0C909106
:1036C0004E0CA0914F0CB091500C892B8A2B8B2B58
:1036D00009F484CF0E940F0D00914D0C10914E0CF7
:1036E00020914F0C3091500C6C197D098E099F0967
:1036F000061717072807390708F070CF80914C0C80
:103700000E94BC1AC0E0CFCF85EEB5CF80914D0CA2
:1037100090914E0CA0914F0CB091500C892B8A2B9C
:103720008B2B09F4AECF0E940F0D00914D0C109120
:103730004E0C20914F0C3091500C6C197D098E0964
:103740009F09061717072807390708F09ACFD6CF21
:1037500091919D938F5FA5CF0895E091720C809118
:10376000710CE81730F4F0E0EF5AF34F808190E0ED
:1037700008958FEF9FEF0895CF92DF92EF92FF921F
:103780000F931F93CF93DF937C01CB018A0120918C
:10379000760C222389F0EB016B01C40ED51ECC15EB
:1037A000DD0569F06991D701ED91FC910190F081FF
:1037B000E02DC7011995F3CF642F0E94601AC8014C
:1037C000DF91CF911F910F91FF90EF90DF90CF90FD
:1037D0000895CF93DF931F92CDB7DEB76983209111
:1037E000760C2223F9F02091730C203258F021E05E
:1037F00030E0FC013383228390E080E00F90DF9182
:10380000CF9108958091740CE82FF0E0E05AF64FC4
:10381000998190838F5F8093740C8093730C81E007
:1038200090E0ECCF61E0CE0101960E94601AF7CFE4
:10383000CF92DF92EF92FF920F931F93CF93DF937C
:10384000D091730C81E0D13208F09CC0C091750C0E
:103850000E940F0D6B017C0180914B0C81116CC09B
:1038600082E080934B0C81E080934A0C8FEF809331
:10387000490C1092480CD093470CA0E6B9E0E5E261
:10388000FCE080E0D8138DC01092460C8091460C6D
:10389000CC0FC82BC093460C8091450C813009F0A9
:1038A00084C01092450C0E940F0D6B017C01809129
:1038B000460C8093BB0080914D0C90914E0CA091D2
:1038C0004F0CB091500C892B8A2B8B2BA1F00E94AE
:1038D0000F0D00914D0C10914E0C20914F0C30911A
:1038E000500C6C197D098E099F09061717072807C8
:1038F000390708F442C08091BC0083FDD8CF85EC25
:103900008093BC000E940F0D6B017C0180914B0CD9
:10391000823009F44CC08091490C8F3F09F469C092
:103920008091490C803209F466C08091490C803343
:1039300009F463C084E026C080914D0C90914E0C38
:10394000A0914F0CB091500C892B8A2B8B2B09F432
:1039500083CF0E940F0D00914D0C10914E0C2091C1
:103960004F0C3091500C6C197D098E099F09061778
:1039700017072807390708F06FCF80914C0C0E9479
:10398000BC1A85E01092740C1092730C1092760C95
:10399000DF91CF911F910F91FF90EF90DF90CF902B
:1039A00008959D9191938F5F6DCF85EEA9CF809102
:1039B0004D0C90914E0CA0914F0CB091500C892B56
:1039C0008A2B8B2B09F4A2CF0E940F0D00914D0C76
:1039D00010914E0C20914F0C3091500C6C197D09B8
:1039E0008E099F09061717072807390708F08ECF99
:1039F000C4CF80E0C7CF82E0C5CF83E0C3CFCF93F1
:103A0000DF93D82FC62F8091D6108F3F21F580915C
:103A1000CD100E9475038091C3109091C410DC01F9
:103A2000ED91FC910190F081E02D6D2F1995809121
:103A3000C3109091C410DC01ED91FC910190F081D4
:103A4000E02D6C2F19958091C3109091C410DF91D7
:103A5000CF910C94181C8091D9108F3F21F482E5EE
:103A600091E00E94460E60E08091D6100E943F08CF
:103A70008D2F8F770E94E70D8C2F0E94E70D61E05C
:103A80008091D610DF91CF910C943F080F931F9334
:103A9000CF938C01C62FFC0184810E947503F8012D
:103AA00063856C2B88E39FE00E94E91B88E39FE01D
:103AB000CF911F910F910C94181C90E080E0089515
:103AC000FC01828193819C01225031092330310510
:103AD00060F48330910551F4DF01AB5BBF4F1D9261
:103AE0001C92918380831382128208958430910501
:103AF000C1F7DF01A95BBF4F2D913C911197129740
:103B00002D933C93EECFCF93DF93EC018A859B8579
:103B1000AC85BD858E839F83A887B9870E94660D7B
:103B20006A837B838C839D8381E089838883DF9193
:103B3000CF910895CF93DF93EC018E819F81A8856B
:103B4000B9858A839B83AC83BD830E94660D6A8797
:103B50007B878C879D8781E089838883DF91CF91E4
:103B6000089548EE53E060E070E082E390E00C944A
:103B700044099C01892BB1F0032E000C440B550B1A
:103B80002150310941095109A9EBB0E00E94366A80
:103B900023E630E040E050E00E94176A2A5B3F4F86
:103BA0004F4F5F4FB90186E00C94380C8F929F9273
:103BB000AF92BF92CF92DF92EF92FF92C09018091E
:103BC000D0901909E0901A09F0901B09A7019601FD
:103BD000609122097091230980912409909125090F
:103BE0000E947A6A4B015C01A70196016091140959
:103BF0007091150980911609909117090E947A6AAF
:103C00009B01AC01C501B4010E94E76A20E030E0ED
:103C100048EC52E40E9440690E94596B77FF02C051
:103C200070E060E0CB016536710514F084E690E049
:103C3000FF90EF90DF90CF90BF90AF909F908F90CC
:103C4000089587E79CE00E94EC06181619062CF4EC
:103C500087E79CE00E94CA06F4CF089584E19DE0C6
:103C60000E94EC06181619062CF484E19DE00E94CF
:103C7000CA06F4CF0895CF92DF92EF92FF921F937E
:103C8000CF93DF93EC0180E2689FF0011124E950AB
:103C9000F64F9385917161F0842F827449F080E032
:103CA000DF91CF911F91FF90EF90DF90CF9008951B
:103CB000142F6A8B8091140290911502A091160224
:103CC000B09117028E879F87A88BB98BC488D5883F
:103CD000F12CE12C7601DD24CC24CF8AD88EE98E1C
:103CE000FA8E828D938DB0E0A0E0AC01BD014C292D
:103CF0005D296E297F294F8B588F698F7A8F838535
:103D00008871B1F4848D958DA68DB78D8B8B9C8B2E
:103D1000AD8BBE8B81E08D831F701C831E821F8242
:103D2000188619861A861B861C861D8681E0B8CFE8
:103D3000803109F0B4CF9E012D5E3F4F8B8D9C8D5D
:103D40000E94A713882309F4AACF84E0E4CF862F2A
:103D5000642F0E94DD1A1092720C8093710C0895EA
:103D600088E60E9475036FE088E39FE00E94E91BEC
:103D700088E39FE00E94181C41E068E688E39FE02A
:103D80000E94A71E0E943C0408951F93CF93DF93C7
:103D9000EC0188E60E94750360E088E39FE00E94E2
:103DA000E91B2D811AE0822F612F0E94FD6B682F85
:103DB000660F680F660F620F88E39FE00E94E91BA1
:103DC0002C81822F612F0E94FD6B682F660F680F78
:103DD000660F620F88E39FE00E94E91B2B81822F10
:103DE000612F0E94FD6B682F660F680F660F620FD0
:103DF00088E39FE00E94E91B88814A81698190E005
:103E00000E94720D069667E070E00E94096C682FB0
:103E1000811101C067E088E39FE00E94E91B2A81CD
:103E20001AE0822F612F0E94FD6B682F660F680FCA
:103E3000660F620F88E39FE00E94E91B2981822FB1
:103E4000612F0E94FD6B682F660F680F660F620F6F
:103E500088E39FE00E94E91B2881822F612F0E9446
:103E6000FD6B682F660F680F660F620F88E39FE097
:103E70000E94E91B88E39FE00E94181C0E94B01E6C
:103E8000C82F88E60E9475036FE088E39FE00E94D8
:103E9000E91B6C2F6F7788E39FE00E94E91B88E3A2
:103EA0009FE0DF91CF911F910C94181C8F929F92ED
:103EB000AF92BF92CF92DF92EF92FF92F82E809155
:103EC000D6108F3F09F069C08091CD100E94750314
:103ED0008091C3109091C410DC01ED91FC91019090
:103EE000F081E02D6F2D19958091C3109091C41031
:103EF0000E94181C43E06091CD108091C3109091F6
:103F0000C4100E94A71E8091C3109091C410DC01C0
:103F1000ED91FC910284F385E02D19954C01990FE8
:103F2000AA08BB08BA2CA92C982C88248091C3100D
:103F30009091C410DC01ED91FC910284F385E02D99
:103F40001995092E000CAA0BBB0B882A992AAA2ABC
:103F5000BB2ABA2CA92C982C88248091C31090914C
:103F6000C410DC01ED91FC910284F385E02D1995DC
:103F7000092E000CAA0BBB0B6C017D01C828D928A7
:103F8000EA28FB28C701B601FF90EF90DF90CF90A1
:103F9000BF90AF909F908F9008958091D9108F3FE0
:103FA00021F482E591E00E94460E60E08091D610F7
:103FB0000E943F088F2D0E94E70D80E00E94E70DD0
:103FC00090E0B0E0A0E0CC24D82EE92EFA2E80E0DC
:103FD0000E94E70DC82AFE2CED2CDC2CCC2480E0BE
:103FE0000E94E70DC82A61E08091D6100E943F0828
:103FF000C9CF8F929F92AF92BF92CF92DF92EF92F2
:10400000FF928AEF0E94561F6115710520E8820712
:10401000910509F485C08090DE109090DF10B12CDE
:10402000A12CC72ED82EE92EFF24E7FCFA94C8183D
:10403000D908EA08FB0837E0959587957795679545
:104040003A95D1F7880C991CAA1CBB1C9B01AC01AA
:10405000281939094A095B09A091E010B091E110D3
:104060000E94416A4B015C015BE0B594A794979470
:1040700087945A95D1F7A7019601C701B6010E940E
:10408000ED6B9B01AC016CE05595479537952795F5
:104090006A95D1F7A091E210B091E3100E94416AB5
:1040A0009B01AC017EE055954795379527957A950C
:1040B000D1F7280D391D4A1D5B1D8091DA109091B2
:1040C000DB10A091DC10B091DD10280F391F4A1FC2
:1040D0005B1F2093D2103093D3104093D410509391
:1040E000D510A5E0B0E00E94366A60587F4F8F4F30
:1040F0009F4F672F782F892F992787FD9A950E94C8
:10410000E16820E030E048EC52E40E94E76AFF906A
:10411000EF90DF90CF90BF90AF909F908F900895D9
:1041200060E070E080EC9FE7F2CFCF93DF93C82F81
:104130008091D6108F3F09F03FC08091CD100E9432
:1041400075038091C3109091C410DC01ED91FC9136
:104150000190F081E02D6C2F19958091C310909102
:10416000C4100E94181C42E06091CD108091C310D1
:104170009091C4100E94A71E8091C3109091C4100A
:10418000DC01ED91FC910284F385E02D1995C82F97
:104190008091C3109091C410DC01ED91FC910284D8
:1041A000F385E02D199520E03C2FE901C82BD92B90
:1041B000CE01DF91CF9108958091D9108F3F21F4E6
:1041C00082E591E00E94460E60E08091D6100E9448
:1041D0003F088C2F0E94E70D80E00E94E70DC82F5A
:1041E00080E00E94E70DDC2FC82F61E08091D6109F
:1041F0000E943F08DDCF0E949520982789279827A5
:104200000895CF93C82F8091D6108F3F71F580917C
:10421000CD100E9475038091C3109091C410DC01F1
:10422000ED91FC910190F081E02D6C2F199580911A
:10423000C3109091C4100E94181C41E06091CD10F1
:104240008091C3109091C4100E94A71E8091C3104A
:104250009091C410DC01ED91FC910284F385E02D76
:104260001995C82F8C2FCF9108958091D9108F3F29
:1042700021F482E591E00E94460E60E08091D61024
:104280000E943F088C2F0E94E70D80E00E94E70DFE
:10429000C82F61E08091D6100E943F08E3CFCF93F2
:1042A000DF938091D6108F3F09F00EC10E94A51AAE
:1042B00080ED0E94012190E0B0E0A0E08093CE105C
:1042C0009093CF10A093D010B093D1108036910569
:1042D000A105B10509F015C166EB80EE0E94FF1C37
:1042E0006AE070E080E090E00E94340D83EF0E946D
:1042F000012180FDF5CF88E80E94FB209093DF101C
:104300008093DE108AE80E94FB209093E110809356
:10431000E0108CE80E94FB209093E3108093E21061
:104320008EE80E94FB209093E5108093E41080E9D2
:104330000E94FB209093E7108093E61082E90E9490
:10434000FB209093E9108093E81084E90E94FB2001
:104350009093EB108093EA1086E90E94FB209093E3
:10436000ED108093EC1088E90E94FB209093EF10F1
:104370008093EE108AE90E94FB209093F1108093C5
:10438000F0108CE90E94FB209093F3108093F210C0
:104390008EE90E94FB209093F5108093F41081EA3F
:1043A0000E9401218093F61081EE0E94FB209093E1
:1043B000F8108093F71083EE0E9401218093F9108A
:1043C00084EE0E940121C82F85EE0E94012190E118
:1043D000C902900111248F70282B3093FB10209379
:1043E000FA1086EE0E940121C82F85EE0E9401215D
:1043F00090E1C902E001112490E024E095958795B1
:104400002A95E1F78C2B9D2B9093FD108093FC1047
:1044100087EE0E9401218093FE108DEE80930011A3
:10442000809101118F71806A809301118091FF103A
:10443000807C8093FF1060E084EF0E94FF1C6091FD
:10444000011162956695677082EF0E94FF1C809152
:10445000FF10682F677090E2699FB0011124282F28
:10446000269526952695277094E0299F9001112482
:10447000622B87FB882780F9682B85EF0E94FF1C41
:1044800080910011682F677090E2699FB00111243C
:10449000282F269526952695277094E0299F900130
:1044A0001124622B8295869586958370682B84EF04
:1044B0000E94FF1C64E670E080E090E00E94340DF2
:1044C00081E0DF91CF91089561E00E943F0861E0B3
:1044D0008091D6100E9408098091D9108F3F19F45D
:1044E0000E949E0DE5CE61E00E94080961E0809186
:1044F000D7100E94080960E08091D8100E94080936
:10450000D7CE80E0DECF0F931F93CF938C01C62FC1
:104510000E94461D6C2F6460C8010E94461D6C2FCE
:104520006B7FC8010E94461D83EC90E00197F1F774
:10453000CF911F910F9108950F931F93CF93DF9306
:104540008C01D62FC42F607F642B0E94832280E1D0
:10455000D89FB00111246C2BC801DF91CF911F911E
:104560000F910C948322CF93DF9300D000D01F9241
:104570001F92CDB7DEB798E0E5EDF2E0DE011196CF
:1045800001900D929A95E1F79091BF10961710F453
:104590006FEF690F262F30E0220F331F41E050E00C
:1045A0004C0F5D1F240F351FF9016081680F606893
:1045B00040E087EB90E128960FB6F894DEBF0FBE7F
:1045C000CDBFDF91CF910C949C2240E061E087EB5E
:1045D00090E10E949C228BE39FE10197F1F70895FF
:1045E00041E00E949C2281E090E008950F931F9388
:1045F000CF93DF938B0198E0899FB0011124606411
:1046000040E087EB90E10E949C22E801085F1F4F89
:10461000699187EB90E10E94F022C017D107C1F7A2
:10462000DF91CF911F910F910895CF92DF92EF927A
:10463000FF920F931F93CF93DF93EC0160E08E8185
:104640000E943F0860E08A810E943F088E012A850F
:104650003B85C8018C1B9D0B82179307E4F4F8017E
:10466000E484DA80C88088E0F82E6E2D661F662705
:10467000661F8C2D0E943F08EE0C61E08D2D0E947C
:104680003F0860E08D2D0E943F08FA94F110EDCFB5
:104690000F5F1F4FDCCF61E08E81DF91CF911F91C3
:1046A0000F91FF90EF90DF90CF900C943F08CF9345
:1046B000DF93FC01C681D78184819581209729F4FD
:1046C00061E0DF91CF910C943F08FC0197FD379694
:1046D00023E0F595E7952A95E1F768E070E00E9400
:1046E0001D6C282F81E090E0A0E0B0E004C0880FAE
:1046F000991FAA1FBB1F2A95D2F7EC0FFD1F248517
:10470000822B9CAD8487992319F0DF91CF91089576
:10471000CE01DF91CF910C941523DC011696ED911B
:10472000FC91179714968D919C91309719F460E045
:104730000C943F089C0197FF02C0295F3F4F43E064
:10474000359527954A95E1F768E070E00E941D6C69
:10475000482F81E090E0A0E0B0E004C0880F991FEE
:10476000AA1FBB1F4A95D2F78095DF01A20FB31F86
:104770001C969C911C97892394AD1C968C93911147
:104780000895CF010C941523CF93DF93FC01208172
:104790003181225031092330310598F4EC010E9417
:1047A0008D231BAE1AAEFE01E05CFF4F10828881A4
:1047B00099819B838A83198218821CAE1DAE1EAE1E
:1047C0001FAEDF91CF910895CF93DF93EC018881E5
:1047D0009981029718F0CE010E94C423CE010E9455
:1047E000572381E090E099838883DF91CF910895EA
:1047F000CF93DF93EC010E948D23888199819B8365
:104800008A8319821882DF91CF910895CF92DF9227
:10481000EF92FF920F931F93CF93DF93EC01888168
:1048200099818230910509F057C00E94660D6B0195
:104830007C018CAD9DADAEADBFAD0097A105B105BE
:10484000A9F4FE01E05CFF4F81E08083CE010E946D
:104850005723CCAEDDAEEEAEFFAEDF91CF911F9110
:104860000F91FF90EF90DF90CF900895B701A601D0
:10487000481B590B6A0B7B0B8AAD9BAD880F991FA8
:10488000EEA9FFA9E80FF91F80819181092E000C84
:10489000AA0BBB0B84179507A607B707F0F6FE0116
:1048A000E05CFF4F808191E089278083882381F03D
:1048B000CE010E9457238AAD9BAD01969BAF8AAF74
:1048C00028AD39AD8217930724F21BAE1AAEC1CFC3
:1048D000CE010E948D23EFCF8330910509F047C0B0
:1048E0000E94660D0CAD1DAD2EAD3FAD6B017C0180
:1048F000C01AD10AE20AF30A97018601FE01EF5BB2
:10490000FF4F408151816A01F12CE12CC016D10684
:10491000E206F30608F0A1CF6CAF7DAF8EAF9FAF7C
:10492000329680819181DE01AB5BBF4F6D917C91AE
:104930001197680F791F11967C936E9316161706C0
:1049400034F412962D913C91621773072CF09195D7
:1049500081959109918380838C81DF91CF911F9103
:104960000F91FF90EF90DF90CF900C94380C04974C
:1049700009F073CF0E94660D0CAD1DAD2EAD3FAD9D
:104980006B017C01C01AD10AE20AF30AFE01EF5B57
:10499000FF4F0081118130E020E00C151D052E0530
:1049A0003F0508F05ACF6CAF7DAF8EAF9FAF349606
:1049B00020813181DE01AD5BBF4F4D915C9111973C
:1049C000241B350B3183208337FF0DC014962D91A6
:1049D0003C91318320836C507E4F8F4F9F4F6CAF43
:1049E0007DAF8EAF9FAF60817181B6CFCF93DF93E4
:1049F000EC010E948D231BAE1AAEFE01E05CFF4F5E
:104A00001082198218821CAE1DAE1EAE1FAEDF9141
:104A1000CF910895EF92FF920F931F93CF93DF935F
:104A2000EC017B018A01888199818D7F892B19F0A6
:104A3000CE010E94F82319AF08AFC801880F991F53
:104A40000E94DE628EAB9FABD701FC0190E080E05C
:104A50002D913D9121933193019608171907C1F7C4
:104A60001BAE1AAE82E090E0998388831CAE1DAE27
:104A70001EAE1FAEDF91CF911F910F91FF90EF906F
:104A80000895BC016E5C7F4F42E050E00C940A2513
:104A90000F931F93CF93DF93FC01048115810115C0
:104AA000110539F4FB011082DF91CF911F910F9115
:104AB0000895415051094017510708F48A01EB014C
:104AC000FC0160817181A801CE010E94D56EC00FEA
:104AD000D11F1882E9CF8091240C8F938091230CF1
:104AE0008F938091220C8F938091210C8F938091D2
:104AF0001F0C9091200C64E670E00E941D6C9F9347
:104B00008F9380911E0C8F9380911D0C8F9385E560
:104B100093E09F938F938EE892E09F938F930E94F0
:104B2000E46E8DB79EB70C960FB6F8949EBF0FBE7D
:104B30008DBF0895CF93DF93EC0188819981009711
:104B400011F00E947A63198218821D821C821B82D6
:104B50001A82DF91CF910895FC01808191810097A5
:104B600011F00C947A630895FB0101900020E9F79D
:104B70003197AF01461B570BDC01ED91FC91028090
:104B8000F381E02D1994CF93DF93BC018EE49EE076
:104B90000E945106EC016AE673E08EE49EE00E94FA
:104BA000B4258C0F9D1FDF91CF9108958F929F9216
:104BB000AF92BF92EF92FF920F931F93CF93DF9329
:104BC000CDB7DEB7A1970FB6F894DEBF0FBECDBF4D
:104BD0007C01FA01CB0119A2223008F42AE08E01EF
:104BE0000F5D1F4F822E912CB12CA12CBF01A5016E
:104BF00094010E94496AF901CA016A300CF5605DAE
:104C0000D8016E938D01232B242B252B79F790E06F
:104C100080E0109721F0BD01C7010E94B425A19644
:104C20000FB6F894DEBF0FBECDBFDF91CF911F91BD
:104C30000F91FF90EF90BF90AF909F908F9008954D
:104C4000695CDECFCF92DF92EF92FF920F931F93BA
:104C5000CF93DF936B01770FEE08FF08F7FE1BC0C1
:104C6000EC016DE20E943C068C0144275527BA01F5
:104C70004C195D096E097F092AE0CE010E94D625F4
:104C8000800F911FDF91CF911F910F91FF90EF90B7
:104C9000DF90CF9008952AE0B701A601DF91CF9170
:104CA0001F910F91FF90EF90DF90CF900C94D6253D
:104CB0002F923F924F925F926F927F928F929F922C
:104CC000AF92BF92CF92DF92EF92FF921F93CF935A
:104CD000DF93EC016A017B01722EAB019601CB01DF
:104CE000B6010E94E86B6DE673E0811126C04601B3
:104CF0005701E894B7F82FEF3FEF4FE75FE7C501A3
:104D0000B4010E94E86B81110CC02FEF3FEF4FE719
:104D10005FE7C501B4010E94DA6861E773E0181625
:104D200064F02FEF3FEF4FE75FE4C701B6010E9449
:104D3000E36B1816B4F468E973E0CE01DF91CF910C
:104D40001F91FF90EF90DF90CF90BF90AF909F901A
:104D50008F907F906F905F904F903F902F900C942A
:104D6000B4252FEF3FEF4FE75FECC701B6010E947C
:104D7000DA6887FDE0CF20E030E0A901C701B60185
:104D80000E94DA68312C212C87FF09C06DE2CE0128
:104D90000E943C061C01F7FAF094F7F8F09410E03A
:104DA00060E070E080E09FE3711641F020E030E0C9
:104DB00040E251E40E94E76A1F5FF6CFA701960127
:104DC0000E947B6A2B013C010E94606B4B015C01DD
:104DD0002AE0BC01A401CE010E94D6257C01E20C90
:104DE000F31C1123C1F1C501B4010E94DF689B01CE
:104DF000AC01C301B2010E947A6A4B015C016EE210
:104E0000CE010E943C06E80EF91E115020F120E070
:104E100030E040E251E4C501B4010E9440692B0139
:104E20003C010E94606B4B01B12CA12C2AE0B50122
:104E3000A401CE010E94D625E80EF91EC501B401D9
:104E40000E94DF689B01AC01C301B2010E947A6A33
:104E50004B015C01DACFC701DF91CF911F91FF9029
:104E6000EF90DF90CF90BF90AF909F908F907F900A
:104E70006F905F904F903F902F9008950F931F93E6
:104E8000CF93DF938C01D0E0C0E06115710519F07C
:104E90000E94B425EC016AE673E0C8010E94B425C3
:104EA0008C0F9D1FDF91CF911F910F910895CF928D
:104EB000DF92EF92FF921F93CF93DF9380911E0FAB
:104EC000882321F089E19FE00E949E161092FA0E3D
:104ED0001092F80E1092F50E1092F40E84E080936A
:104EE000F30E0E94660DEB0161E08091F30E0E94CB
:104EF000080961E08091F30E0E943F080E949E0D18
:104F000082E58093ED0E1092EE0E8091ED0E909161
:104F1000EE0E0E94460E1AE08FEF0E94E00D115037
:104F2000D9F78FEE9EE00E943F0F20E030E0A9010C
:104F300060E08FEE9EE00E94550F182F8093F90ECF
:104F4000813019F10E94660D6C1B7D0B613D77402D
:104F500060F381E08093F40E8FEE9EE00E94D50D09
:104F600065E773E08EE49EE00E943E2710921902EE
:104F700085E290E10E94601DDF91CF911F91FF902B
:104F8000EF90DF90CF900C94B11D2AEA31E040E021
:104F900050E068E08FEE9EE00E94550F82FF2AC02D
:104FA0001093FA0E8091FA0EC12CD12C760182302A
:104FB00029F4C12CD12CE12C80E4F82E20E030E043
:104FC000A90167E38FEE9EE00E94550FA7019601AD
:104FD00069E28FEE9EE00E94550F8093F90E8823C0
:104FE000C1F00E94660D6C1B7D0B613D774030F374
:104FF00088E0B0CF14E00E94280E8093F90E115083
:10500000D1F78A3A11F082E0A5CF82E08093FA0EC0
:10501000C9CF8091FA0E8230D1F420E030E0A901AE
:105020006AE38FEE9EE00E94550F882311F086E020
:1050300091CF0E94280E807C803C19F483E08093FD
:10504000FA0E0E94280E0E94280E0E94280E8FEE53
:105050009EE00E94D50D80E58093ED0E1092EE0E3D
:1050600081E00E945B11882391F089E19FE00E941A
:105070001214882309F474CF81E080931902DF9120
:10508000CF911F91FF90EF90DF90CF90089580E037
:105090000E945B11882309F463CFE7CF0F931F931E
:1050A000CF93DF93EC010E9443068C016AE673E024
:1050B000CE010E94B425800F911FDF91CF911F91E7
:1050C0000F910895CF93DF93EC010E94E52260E0F9
:1050D00080E00E94B322BE0187EB90E10E9443066C
:1050E000BE018EE49EE00E944E2862E370E080E004
:1050F00090E0DF91CF910C94340D0C94B425CF93B4
:10510000DF9361E080E00E94B322C1E1D0E067E874
:1051100077E087EB90E10E947D282197C1F7DF912E
:10512000CF9108950F931F93CF93DF932091F609AA
:105130002223B1F0EB018C0165E873E08EE49EE080
:105140000E947D28B8018EE49EE00E944306BE01C5
:105150008EE49EE0DF91CF911F910F910C944E2829
:10516000DF91CF911F910F910895FC018081918172
:10517000009711F00C94036460E070E0CB01089597
:10518000FC0180819181009711F00C94256460E00E
:1051900070E0CB0108952F923F924F925F926F92F1
:1051A0007F928F929F92AF92BF92CF92DF92EF92B7
:1051B000FF920F931F93CF93DF93D82FC92F8B01AB
:1051C0000E94256424E630E040E050E00E94496AF5
:1051D00049019B01AC0160E876E988E990E00E9412
:1051E000ED6B6B017C01F80191828082ED2FFC2F29
:1051F0002191822F022E000C990BC0970A97C0F3C1
:105200002E3239F51F0180E8882E86E9982E88E92C
:10521000A82EB12C9AE0492E512C612C712CF10151
:10522000C1911F010C2E000CDD0BE097CA30D10597
:1052300080F4C501B401A30192010E94496A4901A9
:105240005A01DE010E94416AC60ED71EE81EF91EF1
:10525000E6CFA5E0B0E0A70196010E94366A6F5F35
:105260007F4F8F4F9F4F23E030E040E050E00E949F
:10527000496AF80122833383448355831682DF9180
:10528000CF911F910F91FF90EF90DF90CF90BF9043
:10529000AF909F908F907F906F905F904F903F90D6
:1052A0002F9008951F93CF93DF93EC0118811D3247
:1052B00009F42196CE010E9425649B01AC01A4E66D
:1052C000B0E00E94366AAB01BC01FE012991822F39
:1052D000022E000C990BC0970A97B8F32E3231F5C5
:1052E0008181082E000C990BC0978A309105F0F44B
:1052F000AAE0A89F9001A99F300D1124C901330F86
:10530000AA0BBB0B480F591F6A1F7B1F8281082EF7
:10531000000C990BC0978A30910540F4092E000CBF
:10532000AA0BBB0B480F591F6A1F7B1F1D3239F494
:1053300070956095509541955F4F6F4F7F4FCB01B2
:10534000BA01DF91CF911F9108950F931F93CF93CF
:10535000DF938C01EB01FC01808191810097E1F0EA
:105360006881798161157105A9F0428153812C8191
:105370003D814217530770F00E94CE6E8C819D8153
:10538000F801958384831D821C82DF91CF911F9148
:105390000F9108950E947A6388819981F801918321
:1053A00080838A819B81938382838C819D81958375
:1053B0008483198218821B821A82E5CF0F931F9370
:1053C000CF93DF93EC0188819981009759F02A816E
:1053D0003B812617370730F081E0DF91CF911F9195
:1053E0000F9108958B016F5F7F4F0E94BC6D0097F6
:1053F00059F0998388831B830A832C813D81232B59
:1054000059F7FC011082E8CF80E0E7CFEF92FF92DE
:105410000F931F93CF93DF936115710541F480E0E3
:10542000DF91CF911F910F91FF90EF90089541155B
:105430005105B1F07B01EC010C811D81040F151F9A
:10544000B8010E94DE29882351F3288139818C819B
:105450009D81B701820F931F0E94CE6E1D830C8326
:1054600081E0DECFCF93DF93EC01FB0101900020C0
:10547000E9F73197AF01461B570B0E94062A8111AD
:1054800003C0CE010E949A25CE01DF91CF910895ED
:10549000CF93DF93EC01FB014481558160817181E1
:1054A0000E94062A811103C0CE010E949A25CE01D6
:1054B000DF91CF910895EF92FF920F931F93CF93B7
:1054C000DF93CDB7DEB764970FB6F894DEBF0FBE9B
:1054D000CDBF7C01CB01BA018E010F5F1F4F22E0CF
:1054E00044E00E94C062FC0101900020E9F731977E
:1054F000AF01481B590BBC01C7010E94062A6496E4
:105500000FB6F894DEBF0FBECDBFDF91CF911F91D4
:105510000F91FF90EF900895EF92FF920F931F93DA
:10552000CF93DF9300D000D01F921F92CDB7DEB78C
:105530007C01CB014AE08E010F5F1F4FB8010E9432
:105540008764F80101900020E9F73197AF01401B13
:10555000510BB801C7010E94062A28960FB6F8948D
:10556000DEBF0FBECDBFDF91CF911F910F91FF9096
:10557000EF900895CF93DF931F921F92CDB7DEB7C0
:1055800069831A8241E050E0BE016F5F7F4F0E9445
:10559000062A0F900F90DF91CF910895CF93DF935C
:1055A000D1E08EE49EE00E94EC06892B79F08EE437
:1055B0009EE00E94CA06C82F682F84E49FE00E94E4
:1055C000BA2ACD3071F7D093E709EBCFDF91CF91B5
:1055D00008950E94160781110E94CE2A80E090E073
:1055E000892B29F00E940C0781110E94000080E0A5
:1055F00090E0892B29F00E94020781110E9400008F
:1056000080E090E0892B29F00E94F80681110C942B
:1056100000000895FB0101900020E9F73197AF01E8
:10562000461B570B0C94062AFB014481558160816F
:1056300071810C94062AEF92FF920F931F93CF93E0
:10564000DF93EC017B018A01BA010E94DE298111FE
:105650000BC0CE010E949A25CE01DF91CF911F9100
:105660000F91FF90EF9008951D830C83B7018881FF
:1056700099810E94CE6EF0CFFB0101900020E9F7E6
:105680003197AF01461B570B0C941B2B0F931F93A5
:10569000CF93DF93CDB7DEB762970FB6F894DEBF36
:1056A0000FBECDBF8C01CB01F80111821082138295
:1056B0001282158214824AE0BE016F5F7F4F0E9402
:1056C0008764BE016F5F7F4FC8010E943C2B6296CA
:1056D0000FB6F894DEBF0FBECDBFDF91CF911F9103
:1056E0000F9108950F931F93CF93DF9300D000D0B5
:1056F00000D0CDB7DEB78C01862FF8011182108261
:10570000138212821582148240E1BE016F5F7F4FC7
:1057100090E00E94E064BE016F5F7F4FC8010E946D
:105720003C2B29960FB6F894DEBF0FBECDBFDF919C
:10573000CF911F910F9108950F931F93CF93DF93F4
:10574000CDB7DEB7A2970FB6F894DEBF0FBECDBFC0
:105750008C01CB01BA01F8011182108213821282EE
:10576000158214822AE0AE014F5F5F4F0E9492645F
:10577000BE016F5F7F4FC8010E943C2BA2960FB6FF
:10578000F894DEBF0FBECDBFDF91CF911F910F9177
:105790000895EF92FF920F931F93CF93DF93CDB7AE
:1057A000DEB7A1970FB6F894DEBF0FBECDBF7C0168
:1057B000CB01BA01F7011182108213821282158285
:1057C000148242E0420F8E010F5F1F4F0E94C062A1
:1057D000009789F0BC01C7010E943C2BA1960FB62F
:1057E000F894DEBF0FBECDBFDF91CF911F910F9117
:1057F000FF90EF900895C7010E949A25EFCFCF93B5
:10580000DF93EC01FB018617970749F060817181F6
:105810006115710541F0448155810E941B2BCE0119
:10582000DF91CF9108950E949A25F9CFFC01118252
:10583000108213821282158214820C94FF2BFC01B9
:1058400011821082138212821582148261157105F1
:1058500051F0FB0101900020E9F73197AF01461BA1
:10586000570B0C941B2B08952F923F924F925F92EF
:105870006F927F928F929F92AF92BF92CF92DF9260
:10588000EF92FF920F931F93CF93DF93CDB7DEB7C5
:105890002F970FB6F894DEBF0FBECDBF6C017B0112
:1058A000FB0100818FE70E9475035701F3E0AF0E03
:1058B000B11C10E0EA14FB0461F0F70161917F0173
:1058C00088E39FE00E94E91BF70131978081180F60
:1058D000F1CF612F88E39FE00E94E91B88E39FE0FE
:1058E0000E94181C68E873E081113DC00F700E5FC4
:1058F00064E170E080E090E00E94340D402F6FE79B
:1059000088E39FE00E94A71E10E0C8010E94DE62AB
:105910007C010E94660D2B013C018091F6098823D1
:1059200031F06FE873E08EE49EE00E947D2857011D
:105930009CE9292E93E0392ECE0101964C019091DD
:10594000710C8091720C981709F446C00E943C04B7
:1059500095012E193F092017310714F1C7010E9444
:105960007A6367E973E0C6010E941F2CC6012F9677
:105970000FB6F894DEBF0FBECDBFDF91CF911F9160
:105980000F91FF90EF90DF90CF90BF90AF909F90DE
:105990008F907F906F905F904F903F902F900895E1
:1059A000F50181935F012091F609222341F29927A5
:1059B0009F938F933F922F929F928F920E94E46EBB
:1059C000B4018EE49EE00E947D280F900F900F900E
:1059D0000F900F900F90B3CF8091F609882331F08C
:1059E0006AE673E08EE49EE00E94B4250E94660D94
:1059F000641975098609970969377105810591054B
:105A000030F0C7010E947A6364EA73E0ACCFF7011B
:105A100080E0580191E0A91AB1089F012E193F09B1
:105A20002A153B051CF49191890FF7CF0E0D1F1D10
:105A3000F80131979081891731F0C7010E947A638C
:105A400069EA73E090CF63EA73E0CE0107960E94A3
:105A50001F2C4701EFEF8E1A9E0A8EEA682E83E014
:105A6000782E8E01035F1F4FC4018E199F098A157E
:105A70009B0514F5F40181914F011F928F937F9242
:105A80006F921F930F930E94E46EB801CE010196AE
:105A90000E941F2CBE016F5F7F4FCE0107960E94B0
:105AA000142BCE0101960E94AC250F900F900F9001
:105AB0000F900F900F90D8CFC7010E947A63F60124
:105AC000118210821382128215821482BE01695FD4
:105AD0007F4FC6010E94A529CE0107960E94AC25E2
